{
  "contractName": "Marketplace",
  "abi": [
    {
      "inputs": [],
      "stateMutability": "nonpayable",
      "type": "constructor"
    },
    {
      "anonymous": false,
      "inputs": [
        {
          "indexed": false,
          "internalType": "uint256",
          "name": "itemId",
          "type": "uint256"
        },
        {
          "indexed": true,
          "internalType": "address",
          "name": "nft",
          "type": "address"
        },
        {
          "indexed": false,
          "internalType": "uint256",
          "name": "tokenId",
          "type": "uint256"
        },
        {
          "indexed": false,
          "internalType": "string",
          "name": "description",
          "type": "string"
        },
        {
          "indexed": false,
          "internalType": "string",
          "name": "imageURL",
          "type": "string"
        },
        {
          "indexed": false,
          "internalType": "bool",
          "name": "isVerified",
          "type": "bool"
        },
        {
          "indexed": false,
          "internalType": "uint256",
          "name": "price",
          "type": "uint256"
        },
        {
          "indexed": false,
          "internalType": "address",
          "name": "originalOwner",
          "type": "address"
        },
        {
          "indexed": true,
          "internalType": "address",
          "name": "seller",
          "type": "address"
        },
        {
          "indexed": true,
          "internalType": "address",
          "name": "buyer",
          "type": "address"
        }
      ],
      "name": "Bought",
      "type": "event"
    },
    {
      "anonymous": false,
      "inputs": [
        {
          "indexed": false,
          "internalType": "uint256",
          "name": "itemId",
          "type": "uint256"
        },
        {
          "indexed": true,
          "internalType": "address",
          "name": "nft",
          "type": "address"
        },
        {
          "indexed": false,
          "internalType": "uint256",
          "name": "tokenId",
          "type": "uint256"
        },
        {
          "indexed": false,
          "internalType": "string",
          "name": "description",
          "type": "string"
        },
        {
          "indexed": false,
          "internalType": "string",
          "name": "imageURL",
          "type": "string"
        },
        {
          "indexed": false,
          "internalType": "bool",
          "name": "isVerified",
          "type": "bool"
        },
        {
          "indexed": false,
          "internalType": "uint256",
          "name": "price",
          "type": "uint256"
        },
        {
          "indexed": true,
          "internalType": "address",
          "name": "seller",
          "type": "address"
        }
      ],
      "name": "Offered",
      "type": "event"
    },
    {
      "inputs": [],
      "name": "itemCount",
      "outputs": [
        {
          "internalType": "uint256",
          "name": "",
          "type": "uint256"
        }
      ],
      "stateMutability": "view",
      "type": "function",
      "constant": true
    },
    {
      "inputs": [
        {
          "internalType": "uint256",
          "name": "",
          "type": "uint256"
        }
      ],
      "name": "items",
      "outputs": [
        {
          "internalType": "uint256",
          "name": "itemId",
          "type": "uint256"
        },
        {
          "internalType": "contract IERC721",
          "name": "nft",
          "type": "address"
        },
        {
          "internalType": "uint256",
          "name": "tokenId",
          "type": "uint256"
        },
        {
          "internalType": "string",
          "name": "description",
          "type": "string"
        },
        {
          "internalType": "string",
          "name": "imageURL",
          "type": "string"
        },
        {
          "internalType": "bool",
          "name": "isVerified",
          "type": "bool"
        },
        {
          "internalType": "uint256",
          "name": "price",
          "type": "uint256"
        },
        {
          "internalType": "address payable",
          "name": "originalOwner",
          "type": "address"
        },
        {
          "internalType": "address payable",
          "name": "seller",
          "type": "address"
        },
        {
          "internalType": "bool",
          "name": "sold",
          "type": "bool"
        }
      ],
      "stateMutability": "view",
      "type": "function",
      "constant": true
    },
    {
      "inputs": [
        {
          "internalType": "contract IERC721",
          "name": "_nft",
          "type": "address"
        },
        {
          "internalType": "uint256",
          "name": "_tokenId",
          "type": "uint256"
        },
        {
          "internalType": "uint256",
          "name": "_price",
          "type": "uint256"
        },
        {
          "internalType": "string",
          "name": "descriptionInput",
          "type": "string"
        },
        {
          "internalType": "string",
          "name": "imageUrl",
          "type": "string"
        },
        {
          "internalType": "bool",
          "name": "isVerified",
          "type": "bool"
        },
        {
          "internalType": "address payable",
          "name": "originalOwner",
          "type": "address"
        }
      ],
      "name": "makeItem",
      "outputs": [],
      "stateMutability": "nonpayable",
      "type": "function"
    },
    {
      "inputs": [
        {
          "internalType": "uint256",
          "name": "_itemId",
          "type": "uint256"
        }
      ],
      "name": "purchaseItem",
      "outputs": [],
      "stateMutability": "payable",
      "type": "function",
      "payable": true
    },
    {
      "inputs": [
        {
          "internalType": "uint256",
          "name": "_itemId",
          "type": "uint256"
        }
      ],
      "name": "getTotalPrice",
      "outputs": [
        {
          "internalType": "uint256",
          "name": "",
          "type": "uint256"
        }
      ],
      "stateMutability": "view",
      "type": "function",
      "constant": true
    }
  ],
  "bytecode": "0x608060405234801561001057600080fd5b5060016000819055506118ec806100286000396000f3fe60806040526004361061004a5760003560e01c80636bfb0d011461004f578063bfb231d21461007a578063ca7dd375146100c0578063cbc7a004146100fd578063d38ea5bf14610126575b600080fd5b34801561005b57600080fd5b50610064610142565b6040516100719190610b30565b60405180910390f35b34801561008657600080fd5b506100a1600480360381019061009c9190610b8b565b610148565b6040516100b79a99989796959493929190610d03565b60405180910390f35b3480156100cc57600080fd5b506100e760048036038101906100e29190610b8b565b610326565b6040516100f49190610b30565b60405180910390f35b34801561010957600080fd5b50610124600480360381019061011f9190610f8a565b610346565b005b610140600480360381019061013b9190610b8b565b6106e7565b005b60015481565b60026020528060005260406000206000915090508060000154908060010160009054906101000a900473ffffffffffffffffffffffffffffffffffffffff169080600201549080600301805461019d90611093565b80601f01602080910402602001604051908101604052809291908181526020018280546101c990611093565b80156102165780601f106101eb57610100808354040283529160200191610216565b820191906000526020600020905b8154815290600101906020018083116101f957829003601f168201915b50505050509080600401805461022b90611093565b80601f016020809104026020016040519081016040528092919081815260200182805461025790611093565b80156102a45780601f10610279576101008083540402835291602001916102a4565b820191906000526020600020905b81548152906001019060200180831161028757829003601f168201915b5050505050908060050160009054906101000a900460ff16908060060154908060070160009054906101000a900473ffffffffffffffffffffffffffffffffffffffff16908060080160009054906101000a900473ffffffffffffffffffffffffffffffffffffffff16908060080160149054906101000a900460ff1690508a565b600060026000838152602001908152602001600020600601549050919050565b60026000540361038b576040517f08c379a000000000000000000000000000000000000000000000000000000000815260040161038290611110565b60405180910390fd5b6002600081905550600085116103d6576040517f08c379a00000000000000000000000000000000000000000000000000000000081526004016103cd9061117c565b60405180910390fd5b600160008154809291906103e9906111cb565b91905055508673ffffffffffffffffffffffffffffffffffffffff166323b872dd3330896040518463ffffffff1660e01b815260040161042b93929190611222565b600060405180830381600087803b15801561044557600080fd5b505af1158015610459573d6000803e3d6000fd5b5050505060405180610140016040528060015481526020018873ffffffffffffffffffffffffffffffffffffffff16815260200187815260200185815260200184815260200183151581526020018681526020018273ffffffffffffffffffffffffffffffffffffffff1681526020013373ffffffffffffffffffffffffffffffffffffffff168152602001600015158152506002600060015481526020019081526020016000206000820151816000015560208201518160010160006101000a81548173ffffffffffffffffffffffffffffffffffffffff021916908373ffffffffffffffffffffffffffffffffffffffff16021790555060408201518160020155606082015181600301908161057191906113fb565b50608082015181600401908161058791906113fb565b5060a08201518160050160006101000a81548160ff02191690831515021790555060c0820151816006015560e08201518160070160006101000a81548173ffffffffffffffffffffffffffffffffffffffff021916908373ffffffffffffffffffffffffffffffffffffffff1602179055506101008201518160080160006101000a81548173ffffffffffffffffffffffffffffffffffffffff021916908373ffffffffffffffffffffffffffffffffffffffff1602179055506101208201518160080160146101000a81548160ff0219169083151502179055509050503373ffffffffffffffffffffffffffffffffffffffff168773ffffffffffffffffffffffffffffffffffffffff167fa0eeaedc149cdd91672b15ccd11746d31f96e21a3ddda1a040f3ea5c1faaf9b3600154898888888c6040516106ce969594939291906114cd565b60405180910390a3600160008190555050505050505050565b60026000540361072c576040517f08c379a000000000000000000000000000000000000000000000000000000000815260040161072390611110565b60405180910390fd5b6002600081905550600060026000838152602001908152602001600020905060008160060154905060008311801561076657506001548311155b6107a5576040517f08c379a000000000000000000000000000000000000000000000000000000000815260040161079c90611588565b60405180910390fd5b803410156107e8576040517f08c379a00000000000000000000000000000000000000000000000000000000081526004016107df9061161a565b60405180910390fd5b8160080160149054906101000a900460ff161561083a576040517f08c379a000000000000000000000000000000000000000000000000000000000815260040161083190611686565b60405180910390fd5b60006002905060006064828461085091906116a6565b61085a919061172f565b90508360070160009054906101000a900473ffffffffffffffffffffffffffffffffffffffff1673ffffffffffffffffffffffffffffffffffffffff166108fc829081150290604051600060405180830381858888f193505050501580156108c6573d6000803e3d6000fd5b508360080160009054906101000a900473ffffffffffffffffffffffffffffffffffffffff1673ffffffffffffffffffffffffffffffffffffffff166108fc8286600601546109159190611760565b9081150290604051600060405180830381858888f19350505050158015610940573d6000803e3d6000fd5b5060018460080160146101000a81548160ff0219169083151502179055508360010160009054906101000a900473ffffffffffffffffffffffffffffffffffffffff1673ffffffffffffffffffffffffffffffffffffffff166323b872dd303387600201546040518463ffffffff1660e01b81526004016109c393929190611222565b600060405180830381600087803b1580156109dd57600080fd5b505af11580156109f1573d6000803e3d6000fd5b505050503373ffffffffffffffffffffffffffffffffffffffff168460080160009054906101000a900473ffffffffffffffffffffffffffffffffffffffff1673ffffffffffffffffffffffffffffffffffffffff168560010160009054906101000a900473ffffffffffffffffffffffffffffffffffffffff1673ffffffffffffffffffffffffffffffffffffffff167feff142ae9657e5acd9a47f9c9e6dd1d73fb200359d17b4a87c10e5e315b51e8d888860020154896003018a6004018b60050160009054906101000a900460ff168c600601548d60070160009054906101000a900473ffffffffffffffffffffffffffffffffffffffff16604051610b009796959493929190611839565b60405180910390a450505050600160008190555050565b6000819050919050565b610b2a81610b17565b82525050565b6000602082019050610b456000830184610b21565b92915050565b6000604051905090565b600080fd5b600080fd5b610b6881610b17565b8114610b7357600080fd5b50565b600081359050610b8581610b5f565b92915050565b600060208284031215610ba157610ba0610b55565b5b6000610baf84828501610b76565b91505092915050565b600073ffffffffffffffffffffffffffffffffffffffff82169050919050565b6000819050919050565b6000610bfd610bf8610bf384610bb8565b610bd8565b610bb8565b9050919050565b6000610c0f82610be2565b9050919050565b6000610c2182610c04565b9050919050565b610c3181610c16565b82525050565b600081519050919050565b600082825260208201905092915050565b60005b83811015610c71578082015181840152602081019050610c56565b60008484015250505050565b6000601f19601f8301169050919050565b6000610c9982610c37565b610ca38185610c42565b9350610cb3818560208601610c53565b610cbc81610c7d565b840191505092915050565b60008115159050919050565b610cdc81610cc7565b82525050565b6000610ced82610bb8565b9050919050565b610cfd81610ce2565b82525050565b600061014082019050610d19600083018d610b21565b610d26602083018c610c28565b610d33604083018b610b21565b8181036060830152610d45818a610c8e565b90508181036080830152610d598189610c8e565b9050610d6860a0830188610cd3565b610d7560c0830187610b21565b610d8260e0830186610cf4565b610d90610100830185610cf4565b610d9e610120830184610cd3565b9b9a5050505050505050505050565b6000610db882610bb8565b9050919050565b6000610dca82610dad565b9050919050565b610dda81610dbf565b8114610de557600080fd5b50565b600081359050610df781610dd1565b92915050565b600080fd5b600080fd5b7f4e487b7100000000000000000000000000000000000000000000000000000000600052604160045260246000fd5b610e3f82610c7d565b810181811067ffffffffffffffff82111715610e5e57610e5d610e07565b5b80604052505050565b6000610e71610b4b565b9050610e7d8282610e36565b919050565b600067ffffffffffffffff821115610e9d57610e9c610e07565b5b610ea682610c7d565b9050602081019050919050565b82818337600083830152505050565b6000610ed5610ed084610e82565b610e67565b905082815260208101848484011115610ef157610ef0610e02565b5b610efc848285610eb3565b509392505050565b600082601f830112610f1957610f18610dfd565b5b8135610f29848260208601610ec2565b91505092915050565b610f3b81610cc7565b8114610f4657600080fd5b50565b600081359050610f5881610f32565b92915050565b610f6781610ce2565b8114610f7257600080fd5b50565b600081359050610f8481610f5e565b92915050565b600080600080600080600060e0888a031215610fa957610fa8610b55565b5b6000610fb78a828b01610de8565b9750506020610fc88a828b01610b76565b9650506040610fd98a828b01610b76565b955050606088013567ffffffffffffffff811115610ffa57610ff9610b5a565b5b6110068a828b01610f04565b945050608088013567ffffffffffffffff81111561102757611026610b5a565b5b6110338a828b01610f04565b93505060a06110448a828b01610f49565b92505060c06110558a828b01610f75565b91505092959891949750929550565b7f4e487b7100000000000000000000000000000000000000000000000000000000600052602260045260246000fd5b600060028204905060018216806110ab57607f821691505b6020821081036110be576110bd611064565b5b50919050565b7f5265656e7472616e637947756172643a207265656e7472616e742063616c6c00600082015250565b60006110fa601f83610c42565b9150611105826110c4565b602082019050919050565b60006020820190508181036000830152611129816110ed565b9050919050565b7f5072696365206d7573742062652067726561746572207468616e207a65726f00600082015250565b6000611166601f83610c42565b915061117182611130565b602082019050919050565b6000602082019050818103600083015261119581611159565b9050919050565b7f4e487b7100000000000000000000000000000000000000000000000000000000600052601160045260246000fd5b60006111d682610b17565b91507fffffffffffffffffffffffffffffffffffffffffffffffffffffffffffffffff82036112085761120761119c565b5b600182019050919050565b61121c81610dad565b82525050565b60006060820190506112376000830186611213565b6112446020830185611213565b6112516040830184610b21565b949350505050565b60008190508160005260206000209050919050565b60006020601f8301049050919050565b600082821b905092915050565b6000600883026112bb7fffffffffffffffffffffffffffffffffffffffffffffffffffffffffffffffff8261127e565b6112c5868361127e565b95508019841693508086168417925050509392505050565b60006112f86112f36112ee84610b17565b610bd8565b610b17565b9050919050565b6000819050919050565b611312836112dd565b61132661131e826112ff565b84845461128b565b825550505050565b600090565b61133b61132e565b611346818484611309565b505050565b5b8181101561136a5761135f600082611333565b60018101905061134c565b5050565b601f8211156113af5761138081611259565b6113898461126e565b81016020851015611398578190505b6113ac6113a48561126e565b83018261134b565b50505b505050565b600082821c905092915050565b60006113d2600019846008026113b4565b1980831691505092915050565b60006113eb83836113c1565b9150826002028217905092915050565b61140482610c37565b67ffffffffffffffff81111561141d5761141c610e07565b5b6114278254611093565b61143282828561136e565b600060209050601f8311600181146114655760008415611453578287015190505b61145d85826113df565b8655506114c5565b601f19841661147386611259565b60005b8281101561149b57848901518255600182019150602085019450602081019050611476565b868310156114b857848901516114b4601f8916826113c1565b8355505b6001600288020188555050505b505050505050565b600060c0820190506114e26000830189610b21565b6114ef6020830188610b21565b81810360408301526115018187610c8e565b905081810360608301526115158186610c8e565b90506115246080830185610cd3565b61153160a0830184610b21565b979650505050505050565b7f6974656d20646f65736e27742065786973740000000000000000000000000000600082015250565b6000611572601283610c42565b915061157d8261153c565b602082019050919050565b600060208201905081810360008301526115a181611565565b9050919050565b7f6e6f7420656e6f75676820657468657220746f20636f766572206974656d207060008201527f7269636520616e64206d61726b65742066656500000000000000000000000000602082015250565b6000611604603383610c42565b915061160f826115a8565b604082019050919050565b60006020820190508181036000830152611633816115f7565b9050919050565b7f6974656d20616c726561647920736f6c64000000000000000000000000000000600082015250565b6000611670601183610c42565b915061167b8261163a565b602082019050919050565b6000602082019050818103600083015261169f81611663565b9050919050565b60006116b182610b17565b91506116bc83610b17565b9250817fffffffffffffffffffffffffffffffffffffffffffffffffffffffffffffffff04831182151516156116f5576116f461119c565b5b828202905092915050565b7f4e487b7100000000000000000000000000000000000000000000000000000000600052601260045260246000fd5b600061173a82610b17565b915061174583610b17565b92508261175557611754611700565b5b828204905092915050565b600061176b82610b17565b915061177683610b17565b925082820390508181111561178e5761178d61119c565b5b92915050565b600081546117a181611093565b6117ab8186610c42565b945060018216600081146117c657600181146117dc5761180f565b60ff19831686528115156020028601935061180f565b6117e585611259565b60005b83811015611807578154818901526001820191506020810190506117e8565b808801955050505b50505092915050565b600061182382610c04565b9050919050565b61183381611818565b82525050565b600060e08201905061184e600083018a610b21565b61185b6020830189610b21565b818103604083015261186d8188611794565b905081810360608301526118818187611794565b90506118906080830186610cd3565b61189d60a0830185610b21565b6118aa60c083018461182a565b9897505050505050505056fea264697066735822122084273068e79b2327e3bde7fa21fcbda7ff122dd09c1e946555e1f54872bd22c164736f6c63430008100033",
  "immutableReferences": {},
  "source": "// SPDX-License-Identifier: MIT\npragma solidity ^0.8.0;\n\nimport \"@openzeppelin/contracts/token/ERC721/IERC721.sol\";\nimport \"@openzeppelin/contracts/security/ReentrancyGuard.sol\";\n\n\n\ncontract Marketplace is ReentrancyGuard{\n\n        // Variables\n    uint public itemCount; \n\n    struct Item {\n        uint itemId;\n        IERC721 nft;\n        uint tokenId;\n        string description;\n        string imageURL;\n        bool isVerified;\n        uint price;\n        address payable originalOwner;\n        address payable seller;\n        bool sold;\n    }\n        event Offered(\n        uint itemId,\n        address indexed nft,\n        uint tokenId,\n        string description,\n        string imageURL,\n        bool isVerified,\n        uint price,\n        address indexed seller\n    );\n    event Bought(\n        uint itemId,\n        address indexed nft,\n        uint tokenId,\n        string description,\n        string imageURL,\n        bool isVerified,\n        uint price,\n        address originalOwner,\n        address indexed seller,\n        address indexed buyer\n    );\n\n    // itemId -> Item\n    mapping(uint => Item) public items; // using mapping to map a uint key to an Item object (so a key of 1 will map to Itemm 1)\n\n    constructor() {\n\n    }\n\n    \n// Make item to offer on the marketplace\n    function makeItem(IERC721 _nft, uint _tokenId, uint _price, string memory descriptionInput, string memory imageUrl, bool isVerified, address payable originalOwner) external nonReentrant {\n        \n        require(_price > 0, \"Price must be greater than zero\");\n        // increment itemCount\n        itemCount ++;\n        // transfer nft\n        _nft.transferFrom(msg.sender, address(this), _tokenId);\n        // add new item to items mapping\n        items[itemCount] = Item (\n            itemCount,\n            _nft,\n            _tokenId,\n            descriptionInput,\n            imageUrl,\n            isVerified,\n            _price,\n            payable(originalOwner),\n            payable(msg.sender),\n            false\n        );\n        // emit Offered event // emit (or log because its easier to under) the event onto the Blockchain \n        emit Offered(\n            itemCount,\n            address(_nft),\n            _tokenId,\n            descriptionInput,\n            imageUrl,\n            isVerified,\n            _price,\n            msg.sender\n        );\n    }\n\n    function purchaseItem(uint _itemId) external payable nonReentrant {\n        Item storage item = items[_itemId];\n        uint _totalPrice = item.price;\n        require(_itemId > 0 && _itemId <= itemCount, \"item doesn't exist\");\n        require(msg.value >= _totalPrice, \"not enough ether to cover item price and market fee\");\n        require(!item.sold, \"item already sold\");\n\n        // send fee to original owner \n        uint feeAmount = 2;\n        uint feeTotal = (_totalPrice * feeAmount) / 100;\n        item.originalOwner.transfer(feeTotal);\n\n        // pay seller and feeAccount and original store\n        item.seller.transfer((item.price) - feeTotal);\n        // update item to sold\n        item.sold = true;\n        // transfer nft to buyer\n        item.nft.transferFrom(address(this), msg.sender, item.tokenId);\n        // emit Bought event\n        emit Bought(\n            _itemId,\n            address(item.nft),\n            item.tokenId,\n            item.description,\n            item.imageURL,\n            item.isVerified,\n            item.price,\n            item.originalOwner,\n            item.seller,\n            msg.sender\n        );\n    }\n\n        function getTotalPrice(uint _itemId) view public returns(uint){\n        return((items[_itemId].price));\n    }\n}",
  "sourcePath": "/Users/harveysandhu/Desktop/hss148/msc-vpa-project (GANACHE)/src/Components/Contracts/Marketplace.sol",
  "compiler": {
    "name": "solc",
    "version": "0.8.16+commit.07a7930e.Emscripten.clang"
  },
  "schemaVersion": "3.4.6",
  "updatedAt": "2022-09-18T20:03:10.056Z",
  "networkType": "ethereum",
  "devdoc": {
    "kind": "dev",
    "methods": {},
    "version": 1
  },
  "userdoc": {
    "kind": "user",
    "methods": {},
    "version": 1
  }
}