{
  "contractName": "RolexStore",
  "abi": [
    {
      "anonymous": false,
      "inputs": [
        {
          "indexed": false,
          "internalType": "uint256",
          "name": "itemId",
          "type": "uint256"
        },
        {
          "indexed": true,
          "internalType": "address",
          "name": "nft",
          "type": "address"
        },
        {
          "indexed": false,
          "internalType": "uint256",
          "name": "tokenId",
          "type": "uint256"
        },
        {
          "indexed": false,
          "internalType": "uint256",
          "name": "price",
          "type": "uint256"
        },
        {
          "indexed": true,
          "internalType": "address",
          "name": "seller",
          "type": "address"
        },
        {
          "indexed": true,
          "internalType": "address",
          "name": "buyer",
          "type": "address"
        }
      ],
      "name": "Bought",
      "type": "event"
    },
    {
      "anonymous": false,
      "inputs": [
        {
          "indexed": false,
          "internalType": "uint256",
          "name": "itemId",
          "type": "uint256"
        },
        {
          "indexed": true,
          "internalType": "address",
          "name": "nft",
          "type": "address"
        },
        {
          "indexed": false,
          "internalType": "uint256",
          "name": "tokenId",
          "type": "uint256"
        },
        {
          "indexed": false,
          "internalType": "uint256",
          "name": "price",
          "type": "uint256"
        },
        {
          "indexed": true,
          "internalType": "address",
          "name": "seller",
          "type": "address"
        }
      ],
      "name": "Offered",
      "type": "event"
    },
    {
      "inputs": [],
      "name": "itemCount",
      "outputs": [
        {
          "internalType": "uint256",
          "name": "",
          "type": "uint256"
        }
      ],
      "stateMutability": "view",
      "type": "function",
      "constant": true
    },
    {
      "inputs": [
        {
          "internalType": "uint256",
          "name": "",
          "type": "uint256"
        }
      ],
      "name": "items",
      "outputs": [
        {
          "internalType": "uint256",
          "name": "itemId",
          "type": "uint256"
        },
        {
          "internalType": "contract IERC721",
          "name": "nft",
          "type": "address"
        },
        {
          "internalType": "uint256",
          "name": "tokenId",
          "type": "uint256"
        },
        {
          "internalType": "uint256",
          "name": "price",
          "type": "uint256"
        },
        {
          "internalType": "address payable",
          "name": "seller",
          "type": "address"
        },
        {
          "internalType": "bool",
          "name": "sold",
          "type": "bool"
        }
      ],
      "stateMutability": "view",
      "type": "function",
      "constant": true
    },
    {
      "inputs": [
        {
          "internalType": "contract IERC721",
          "name": "_nft",
          "type": "address"
        },
        {
          "internalType": "uint256[]",
          "name": "_tokenId",
          "type": "uint256[]"
        },
        {
          "internalType": "uint256[]",
          "name": "_price",
          "type": "uint256[]"
        }
      ],
      "name": "makeItem",
      "outputs": [],
      "stateMutability": "nonpayable",
      "type": "function"
    },
    {
      "inputs": [
        {
          "internalType": "uint256",
          "name": "_itemId",
          "type": "uint256"
        }
      ],
      "name": "purchaseItem",
      "outputs": [],
      "stateMutability": "payable",
      "type": "function",
      "payable": true
    },
    {
      "inputs": [
        {
          "internalType": "uint256",
          "name": "_itemId",
          "type": "uint256"
        }
      ],
      "name": "getTotalPrice",
      "outputs": [
        {
          "internalType": "uint256",
          "name": "",
          "type": "uint256"
        }
      ],
      "stateMutability": "view",
      "type": "function",
      "constant": true
    }
  ],
  "bytecode": "0x608060405234801561001057600080fd5b506001600081905550610f96806100286000396000f3fe60806040526004361061004a5760003560e01c80630c0010331461004f5780636bfb0d0114610078578063bfb231d2146100a3578063ca7dd375146100e5578063d38ea5bf14610122575b600080fd5b34801561005b57600080fd5b50610076600480360381019061007191906109cc565b61013e565b005b34801561008457600080fd5b5061008d6104eb565b60405161009a9190610a7a565b60405180910390f35b3480156100af57600080fd5b506100ca60048036038101906100c59190610ac1565b6104f1565b6040516100dc96959493929190610b89565b60405180910390f35b3480156100f157600080fd5b5061010c60048036038101906101079190610ac1565b61057a565b6040516101199190610a7a565b60405180910390f35b61013c60048036038101906101379190610ac1565b61059a565b005b600260005403610183576040517f08c379a000000000000000000000000000000000000000000000000000000000815260040161017a90610c47565b60405180910390fd5b600260008190555060005b848490508110156102085760008383838181106101ae576101ad610c67565b5b90506020020135116101f5576040517f08c379a00000000000000000000000000000000000000000000000000000000081526004016101ec90610ce2565b60405180910390fd5b808061020090610d31565b91505061018e565b5060005b848490508110156104db576001600081548092919061022a90610d31565b91905055508573ffffffffffffffffffffffffffffffffffffffff166323b872dd33308888868181106102605761025f610c67565b5b905060200201356040518463ffffffff1660e01b815260040161028593929190610d88565b600060405180830381600087803b15801561029f57600080fd5b505af11580156102b3573d6000803e3d6000fd5b505050506040518060c0016040528060015481526020018773ffffffffffffffffffffffffffffffffffffffff1681526020018686848181106102f9576102f8610c67565b5b90506020020135815260200184848481811061031857610317610c67565b5b9050602002013581526020013373ffffffffffffffffffffffffffffffffffffffff168152602001600015158152506002600060015481526020019081526020016000206000820151816000015560208201518160010160006101000a81548173ffffffffffffffffffffffffffffffffffffffff021916908373ffffffffffffffffffffffffffffffffffffffff160217905550604082015181600201556060820151816003015560808201518160040160006101000a81548173ffffffffffffffffffffffffffffffffffffffff021916908373ffffffffffffffffffffffffffffffffffffffff16021790555060a08201518160040160146101000a81548160ff0219169083151502179055509050503373ffffffffffffffffffffffffffffffffffffffff168673ffffffffffffffffffffffffffffffffffffffff167f655a0cf9c8db81512be9a76dc1c5ae5380b8816ce6ad659cd61b715e2999d59a6001548888868181106104905761048f610c67565b5b905060200201358787878181106104aa576104a9610c67565b5b905060200201356040516104c093929190610dbf565b60405180910390a380806104d390610d31565b91505061020c565b5060016000819055505050505050565b60015481565b60026020528060005260406000206000915090508060000154908060010160009054906101000a900473ffffffffffffffffffffffffffffffffffffffff16908060020154908060030154908060040160009054906101000a900473ffffffffffffffffffffffffffffffffffffffff16908060040160149054906101000a900460ff16905086565b600060026000838152602001908152602001600020600301549050919050565b6002600054036105df576040517f08c379a00000000000000000000000000000000000000000000000000000000081526004016105d690610c47565b60405180910390fd5b6002600081905550600060026000838152602001908152602001600020905060008160030154905060008311801561061957506001548311155b610658576040517f08c379a000000000000000000000000000000000000000000000000000000000815260040161064f90610e42565b60405180910390fd5b8034101561069b576040517f08c379a000000000000000000000000000000000000000000000000000000000815260040161069290610ed4565b60405180910390fd5b8160040160149054906101000a900460ff16156106ed576040517f08c379a00000000000000000000000000000000000000000000000000000000081526004016106e490610f40565b60405180910390fd5b8160040160009054906101000a900473ffffffffffffffffffffffffffffffffffffffff1673ffffffffffffffffffffffffffffffffffffffff166108fc83600301549081150290604051600060405180830381858888f1935050505015801561075b573d6000803e3d6000fd5b5060018260040160146101000a81548160ff0219169083151502179055508160010160009054906101000a900473ffffffffffffffffffffffffffffffffffffffff1673ffffffffffffffffffffffffffffffffffffffff166323b872dd303385600201546040518463ffffffff1660e01b81526004016107de93929190610d88565b600060405180830381600087803b1580156107f857600080fd5b505af115801561080c573d6000803e3d6000fd5b505050503373ffffffffffffffffffffffffffffffffffffffff168260040160009054906101000a900473ffffffffffffffffffffffffffffffffffffffff1673ffffffffffffffffffffffffffffffffffffffff168360010160009054906101000a900473ffffffffffffffffffffffffffffffffffffffff1673ffffffffffffffffffffffffffffffffffffffff167f8b4c9c8a607d67b321582dd8461041b1dc2ceeca70c8b7f37f8e02095cf2e76d86866002015487600301546040516108d893929190610dbf565b60405180910390a45050600160008190555050565b600080fd5b600080fd5b600073ffffffffffffffffffffffffffffffffffffffff82169050919050565b6000610922826108f7565b9050919050565b600061093482610917565b9050919050565b61094481610929565b811461094f57600080fd5b50565b6000813590506109618161093b565b92915050565b600080fd5b600080fd5b600080fd5b60008083601f84011261098c5761098b610967565b5b8235905067ffffffffffffffff8111156109a9576109a861096c565b5b6020830191508360208202830111156109c5576109c4610971565b5b9250929050565b6000806000806000606086880312156109e8576109e76108ed565b5b60006109f688828901610952565b955050602086013567ffffffffffffffff811115610a1757610a166108f2565b5b610a2388828901610976565b9450945050604086013567ffffffffffffffff811115610a4657610a456108f2565b5b610a5288828901610976565b92509250509295509295909350565b6000819050919050565b610a7481610a61565b82525050565b6000602082019050610a8f6000830184610a6b565b92915050565b610a9e81610a61565b8114610aa957600080fd5b50565b600081359050610abb81610a95565b92915050565b600060208284031215610ad757610ad66108ed565b5b6000610ae584828501610aac565b91505092915050565b6000819050919050565b6000610b13610b0e610b09846108f7565b610aee565b6108f7565b9050919050565b6000610b2582610af8565b9050919050565b6000610b3782610b1a565b9050919050565b610b4781610b2c565b82525050565b6000610b58826108f7565b9050919050565b610b6881610b4d565b82525050565b60008115159050919050565b610b8381610b6e565b82525050565b600060c082019050610b9e6000830189610a6b565b610bab6020830188610b3e565b610bb86040830187610a6b565b610bc56060830186610a6b565b610bd26080830185610b5f565b610bdf60a0830184610b7a565b979650505050505050565b600082825260208201905092915050565b7f5265656e7472616e637947756172643a207265656e7472616e742063616c6c00600082015250565b6000610c31601f83610bea565b9150610c3c82610bfb565b602082019050919050565b60006020820190508181036000830152610c6081610c24565b9050919050565b7f4e487b7100000000000000000000000000000000000000000000000000000000600052603260045260246000fd5b7f5072696365206d7573742062652067726561746572207468616e207a65726f00600082015250565b6000610ccc601f83610bea565b9150610cd782610c96565b602082019050919050565b60006020820190508181036000830152610cfb81610cbf565b9050919050565b7f4e487b7100000000000000000000000000000000000000000000000000000000600052601160045260246000fd5b6000610d3c82610a61565b91507fffffffffffffffffffffffffffffffffffffffffffffffffffffffffffffffff8203610d6e57610d6d610d02565b5b600182019050919050565b610d8281610917565b82525050565b6000606082019050610d9d6000830186610d79565b610daa6020830185610d79565b610db76040830184610a6b565b949350505050565b6000606082019050610dd46000830186610a6b565b610de16020830185610a6b565b610dee6040830184610a6b565b949350505050565b7f6974656d20646f65736e27742065786973740000000000000000000000000000600082015250565b6000610e2c601283610bea565b9150610e3782610df6565b602082019050919050565b60006020820190508181036000830152610e5b81610e1f565b9050919050565b7f6e6f7420656e6f75676820657468657220746f20636f766572206974656d207060008201527f7269636520616e64206d61726b65742066656500000000000000000000000000602082015250565b6000610ebe603383610bea565b9150610ec982610e62565b604082019050919050565b60006020820190508181036000830152610eed81610eb1565b9050919050565b7f6974656d20616c726561647920736f6c64000000000000000000000000000000600082015250565b6000610f2a601183610bea565b9150610f3582610ef4565b602082019050919050565b60006020820190508181036000830152610f5981610f1d565b905091905056fea26469706673582212206f21bce4a0e6171865e6e0d49fe45a25ed7ae07fe0a11373a59f12655cb2378064736f6c634300080f0033",
  "immutableReferences": {},
  "source": "// SPDX-License-Identifier: MIT\npragma solidity ^0.8.0;\n\nimport \"@openzeppelin/contracts/token/ERC721/IERC721.sol\";\nimport \"@openzeppelin/contracts/security/ReentrancyGuard.sol\";\n\n\ncontract RolexStore is ReentrancyGuard {\n\n        // Variables\n    uint public itemCount; \n\n    struct Item {\n        uint itemId;\n        IERC721 nft;\n        uint tokenId;\n        uint price;\n        address payable seller;\n        bool sold;\n    }\n        event Offered(\n        uint itemId,\n        address indexed nft,\n        uint tokenId,\n        uint price,\n        address indexed seller\n    );\n    event Bought(\n        uint itemId,\n        address indexed nft,\n        uint tokenId,\n        uint price,\n        address indexed seller,\n        address indexed buyer\n    );\n\n    // itemId -> Item\n    mapping(uint => Item) public items; // using mapping to map a uint key to an Item object (so a key of 1 will map to Itemm 1)\n\n    function makeItem(IERC721 _nft, uint[] calldata _tokenId, uint[] calldata _price) external nonReentrant {\n        \n        for (uint i = 0; i < _tokenId.length; i++) {\n        require(_price[i] > 0, \"Price must be greater than zero\");\n        }\n\n        for (uint i = 0; i < _tokenId.length; i ++) {\n            itemCount ++;\n           _nft.transferFrom(msg.sender, address(this), _tokenId[i]); \n\n        items[itemCount] = Item (\n            itemCount,\n            _nft,\n            _tokenId[i],\n            _price[i],\n            payable(msg.sender),\n            false\n        );\n        emit Offered(\n            itemCount,\n            address(_nft),\n            _tokenId[i],\n            _price[i],\n            msg.sender\n        );\n        }\n    }\n\n    function purchaseItem(uint _itemId) external payable nonReentrant {\n        Item storage item = items[_itemId];\n        uint _totalPrice = item.price;\n        require(_itemId > 0 && _itemId <= itemCount, \"item doesn't exist\");\n        require(msg.value >= _totalPrice, \"not enough ether to cover item price and market fee\");\n        require(!item.sold, \"item already sold\");\n        // pay seller and feeAccount\n        item.seller.transfer(item.price);\n        // update item to sold\n        item.sold = true;\n        // transfer nft to buyer\n        item.nft.transferFrom(address(this), msg.sender, item.tokenId);\n        // emit Bought event\n        emit Bought(\n            _itemId,\n            address(item.nft),\n            item.tokenId,\n            item.price,\n            item.seller,\n            msg.sender\n        );\n    }\n\n        function getTotalPrice(uint _itemId) view public returns(uint){\n        return((items[_itemId].price));\n    }\n}",
  "sourcePath": "/Users/harveysandhu/Desktop/hss148/msc-vpa-project (GANACHE)/src/Components/Contracts/RolexStore.sol",
  "compiler": {
    "name": "solc",
    "version": "0.8.15+commit.e14f2714.Emscripten.clang"
  },
  "schemaVersion": "3.4.6",
  "updatedAt": "2022-09-18T20:03:10.043Z",
  "networkType": "ethereum",
  "devdoc": {
    "kind": "dev",
    "methods": {},
    "version": 1
  },
  "userdoc": {
    "kind": "user",
    "methods": {},
    "version": 1
  }
}