{
  "contractName": "RolexNFT",
  "abi": [
    {
      "inputs": [],
      "stateMutability": "nonpayable",
      "type": "constructor"
    },
    {
      "anonymous": false,
      "inputs": [
        {
          "indexed": true,
          "internalType": "address",
          "name": "owner",
          "type": "address"
        },
        {
          "indexed": true,
          "internalType": "address",
          "name": "approved",
          "type": "address"
        },
        {
          "indexed": true,
          "internalType": "uint256",
          "name": "tokenId",
          "type": "uint256"
        }
      ],
      "name": "Approval",
      "type": "event"
    },
    {
      "anonymous": false,
      "inputs": [
        {
          "indexed": true,
          "internalType": "address",
          "name": "owner",
          "type": "address"
        },
        {
          "indexed": true,
          "internalType": "address",
          "name": "operator",
          "type": "address"
        },
        {
          "indexed": false,
          "internalType": "bool",
          "name": "approved",
          "type": "bool"
        }
      ],
      "name": "ApprovalForAll",
      "type": "event"
    },
    {
      "anonymous": false,
      "inputs": [
        {
          "indexed": false,
          "internalType": "address",
          "name": "account",
          "type": "address"
        }
      ],
      "name": "Paused",
      "type": "event"
    },
    {
      "anonymous": false,
      "inputs": [
        {
          "indexed": true,
          "internalType": "bytes32",
          "name": "role",
          "type": "bytes32"
        },
        {
          "indexed": true,
          "internalType": "bytes32",
          "name": "previousAdminRole",
          "type": "bytes32"
        },
        {
          "indexed": true,
          "internalType": "bytes32",
          "name": "newAdminRole",
          "type": "bytes32"
        }
      ],
      "name": "RoleAdminChanged",
      "type": "event"
    },
    {
      "anonymous": false,
      "inputs": [
        {
          "indexed": true,
          "internalType": "bytes32",
          "name": "role",
          "type": "bytes32"
        },
        {
          "indexed": true,
          "internalType": "address",
          "name": "account",
          "type": "address"
        },
        {
          "indexed": true,
          "internalType": "address",
          "name": "sender",
          "type": "address"
        }
      ],
      "name": "RoleGranted",
      "type": "event"
    },
    {
      "anonymous": false,
      "inputs": [
        {
          "indexed": true,
          "internalType": "bytes32",
          "name": "role",
          "type": "bytes32"
        },
        {
          "indexed": true,
          "internalType": "address",
          "name": "account",
          "type": "address"
        },
        {
          "indexed": true,
          "internalType": "address",
          "name": "sender",
          "type": "address"
        }
      ],
      "name": "RoleRevoked",
      "type": "event"
    },
    {
      "anonymous": false,
      "inputs": [
        {
          "indexed": true,
          "internalType": "address",
          "name": "from",
          "type": "address"
        },
        {
          "indexed": true,
          "internalType": "address",
          "name": "to",
          "type": "address"
        },
        {
          "indexed": true,
          "internalType": "uint256",
          "name": "tokenId",
          "type": "uint256"
        }
      ],
      "name": "Transfer",
      "type": "event"
    },
    {
      "anonymous": false,
      "inputs": [
        {
          "indexed": false,
          "internalType": "address",
          "name": "account",
          "type": "address"
        }
      ],
      "name": "Unpaused",
      "type": "event"
    },
    {
      "inputs": [],
      "name": "DEFAULT_ADMIN_ROLE",
      "outputs": [
        {
          "internalType": "bytes32",
          "name": "",
          "type": "bytes32"
        }
      ],
      "stateMutability": "view",
      "type": "function",
      "constant": true
    },
    {
      "inputs": [],
      "name": "MINTER_ROLE",
      "outputs": [
        {
          "internalType": "bytes32",
          "name": "",
          "type": "bytes32"
        }
      ],
      "stateMutability": "view",
      "type": "function",
      "constant": true
    },
    {
      "inputs": [],
      "name": "PAUSER_ROLE",
      "outputs": [
        {
          "internalType": "bytes32",
          "name": "",
          "type": "bytes32"
        }
      ],
      "stateMutability": "view",
      "type": "function",
      "constant": true
    },
    {
      "inputs": [
        {
          "internalType": "address",
          "name": "to",
          "type": "address"
        },
        {
          "internalType": "uint256",
          "name": "tokenId",
          "type": "uint256"
        }
      ],
      "name": "approve",
      "outputs": [],
      "stateMutability": "nonpayable",
      "type": "function"
    },
    {
      "inputs": [
        {
          "internalType": "address",
          "name": "owner",
          "type": "address"
        }
      ],
      "name": "balanceOf",
      "outputs": [
        {
          "internalType": "uint256",
          "name": "",
          "type": "uint256"
        }
      ],
      "stateMutability": "view",
      "type": "function",
      "constant": true
    },
    {
      "inputs": [
        {
          "internalType": "uint256",
          "name": "tokenId",
          "type": "uint256"
        }
      ],
      "name": "burn",
      "outputs": [],
      "stateMutability": "nonpayable",
      "type": "function"
    },
    {
      "inputs": [
        {
          "internalType": "uint256",
          "name": "tokenId",
          "type": "uint256"
        }
      ],
      "name": "getApproved",
      "outputs": [
        {
          "internalType": "address",
          "name": "",
          "type": "address"
        }
      ],
      "stateMutability": "view",
      "type": "function",
      "constant": true
    },
    {
      "inputs": [
        {
          "internalType": "bytes32",
          "name": "role",
          "type": "bytes32"
        }
      ],
      "name": "getRoleAdmin",
      "outputs": [
        {
          "internalType": "bytes32",
          "name": "",
          "type": "bytes32"
        }
      ],
      "stateMutability": "view",
      "type": "function",
      "constant": true
    },
    {
      "inputs": [
        {
          "internalType": "bytes32",
          "name": "role",
          "type": "bytes32"
        },
        {
          "internalType": "uint256",
          "name": "index",
          "type": "uint256"
        }
      ],
      "name": "getRoleMember",
      "outputs": [
        {
          "internalType": "address",
          "name": "",
          "type": "address"
        }
      ],
      "stateMutability": "view",
      "type": "function",
      "constant": true
    },
    {
      "inputs": [
        {
          "internalType": "bytes32",
          "name": "role",
          "type": "bytes32"
        }
      ],
      "name": "getRoleMemberCount",
      "outputs": [
        {
          "internalType": "uint256",
          "name": "",
          "type": "uint256"
        }
      ],
      "stateMutability": "view",
      "type": "function",
      "constant": true
    },
    {
      "inputs": [
        {
          "internalType": "bytes32",
          "name": "role",
          "type": "bytes32"
        },
        {
          "internalType": "address",
          "name": "account",
          "type": "address"
        }
      ],
      "name": "grantRole",
      "outputs": [],
      "stateMutability": "nonpayable",
      "type": "function"
    },
    {
      "inputs": [
        {
          "internalType": "bytes32",
          "name": "role",
          "type": "bytes32"
        },
        {
          "internalType": "address",
          "name": "account",
          "type": "address"
        }
      ],
      "name": "hasRole",
      "outputs": [
        {
          "internalType": "bool",
          "name": "",
          "type": "bool"
        }
      ],
      "stateMutability": "view",
      "type": "function",
      "constant": true
    },
    {
      "inputs": [
        {
          "internalType": "address",
          "name": "owner",
          "type": "address"
        },
        {
          "internalType": "address",
          "name": "operator",
          "type": "address"
        }
      ],
      "name": "isApprovedForAll",
      "outputs": [
        {
          "internalType": "bool",
          "name": "",
          "type": "bool"
        }
      ],
      "stateMutability": "view",
      "type": "function",
      "constant": true
    },
    {
      "inputs": [],
      "name": "maxSupply",
      "outputs": [
        {
          "internalType": "int256",
          "name": "",
          "type": "int256"
        }
      ],
      "stateMutability": "view",
      "type": "function",
      "constant": true
    },
    {
      "inputs": [
        {
          "internalType": "address",
          "name": "to",
          "type": "address"
        }
      ],
      "name": "mint",
      "outputs": [],
      "stateMutability": "nonpayable",
      "type": "function"
    },
    {
      "inputs": [],
      "name": "name",
      "outputs": [
        {
          "internalType": "string",
          "name": "",
          "type": "string"
        }
      ],
      "stateMutability": "view",
      "type": "function",
      "constant": true
    },
    {
      "inputs": [
        {
          "internalType": "uint256",
          "name": "tokenId",
          "type": "uint256"
        }
      ],
      "name": "ownerOf",
      "outputs": [
        {
          "internalType": "address",
          "name": "",
          "type": "address"
        }
      ],
      "stateMutability": "view",
      "type": "function",
      "constant": true
    },
    {
      "inputs": [],
      "name": "pause",
      "outputs": [],
      "stateMutability": "nonpayable",
      "type": "function"
    },
    {
      "inputs": [],
      "name": "paused",
      "outputs": [
        {
          "internalType": "bool",
          "name": "",
          "type": "bool"
        }
      ],
      "stateMutability": "view",
      "type": "function",
      "constant": true
    },
    {
      "inputs": [
        {
          "internalType": "bytes32",
          "name": "role",
          "type": "bytes32"
        },
        {
          "internalType": "address",
          "name": "account",
          "type": "address"
        }
      ],
      "name": "renounceRole",
      "outputs": [],
      "stateMutability": "nonpayable",
      "type": "function"
    },
    {
      "inputs": [
        {
          "internalType": "bytes32",
          "name": "role",
          "type": "bytes32"
        },
        {
          "internalType": "address",
          "name": "account",
          "type": "address"
        }
      ],
      "name": "revokeRole",
      "outputs": [],
      "stateMutability": "nonpayable",
      "type": "function"
    },
    {
      "inputs": [],
      "name": "rolexOwner",
      "outputs": [
        {
          "internalType": "address",
          "name": "",
          "type": "address"
        }
      ],
      "stateMutability": "view",
      "type": "function",
      "constant": true
    },
    {
      "inputs": [
        {
          "internalType": "address",
          "name": "from",
          "type": "address"
        },
        {
          "internalType": "address",
          "name": "to",
          "type": "address"
        },
        {
          "internalType": "uint256",
          "name": "tokenId",
          "type": "uint256"
        }
      ],
      "name": "safeTransferFrom",
      "outputs": [],
      "stateMutability": "nonpayable",
      "type": "function"
    },
    {
      "inputs": [
        {
          "internalType": "address",
          "name": "from",
          "type": "address"
        },
        {
          "internalType": "address",
          "name": "to",
          "type": "address"
        },
        {
          "internalType": "uint256",
          "name": "tokenId",
          "type": "uint256"
        },
        {
          "internalType": "bytes",
          "name": "data",
          "type": "bytes"
        }
      ],
      "name": "safeTransferFrom",
      "outputs": [],
      "stateMutability": "nonpayable",
      "type": "function"
    },
    {
      "inputs": [
        {
          "internalType": "address",
          "name": "operator",
          "type": "address"
        },
        {
          "internalType": "bool",
          "name": "approved",
          "type": "bool"
        }
      ],
      "name": "setApprovalForAll",
      "outputs": [],
      "stateMutability": "nonpayable",
      "type": "function"
    },
    {
      "inputs": [
        {
          "internalType": "bytes4",
          "name": "interfaceId",
          "type": "bytes4"
        }
      ],
      "name": "supportsInterface",
      "outputs": [
        {
          "internalType": "bool",
          "name": "",
          "type": "bool"
        }
      ],
      "stateMutability": "view",
      "type": "function",
      "constant": true
    },
    {
      "inputs": [],
      "name": "symbol",
      "outputs": [
        {
          "internalType": "string",
          "name": "",
          "type": "string"
        }
      ],
      "stateMutability": "view",
      "type": "function",
      "constant": true
    },
    {
      "inputs": [
        {
          "internalType": "uint256",
          "name": "index",
          "type": "uint256"
        }
      ],
      "name": "tokenByIndex",
      "outputs": [
        {
          "internalType": "uint256",
          "name": "",
          "type": "uint256"
        }
      ],
      "stateMutability": "view",
      "type": "function",
      "constant": true
    },
    {
      "inputs": [],
      "name": "tokenCount",
      "outputs": [
        {
          "internalType": "uint256",
          "name": "",
          "type": "uint256"
        }
      ],
      "stateMutability": "view",
      "type": "function",
      "constant": true
    },
    {
      "inputs": [
        {
          "internalType": "address",
          "name": "owner",
          "type": "address"
        },
        {
          "internalType": "uint256",
          "name": "index",
          "type": "uint256"
        }
      ],
      "name": "tokenOfOwnerByIndex",
      "outputs": [
        {
          "internalType": "uint256",
          "name": "",
          "type": "uint256"
        }
      ],
      "stateMutability": "view",
      "type": "function",
      "constant": true
    },
    {
      "inputs": [],
      "name": "totalSupply",
      "outputs": [
        {
          "internalType": "uint256",
          "name": "",
          "type": "uint256"
        }
      ],
      "stateMutability": "view",
      "type": "function",
      "constant": true
    },
    {
      "inputs": [
        {
          "internalType": "address",
          "name": "from",
          "type": "address"
        },
        {
          "internalType": "address",
          "name": "to",
          "type": "address"
        },
        {
          "internalType": "uint256",
          "name": "tokenId",
          "type": "uint256"
        }
      ],
      "name": "transferFrom",
      "outputs": [],
      "stateMutability": "nonpayable",
      "type": "function"
    },
    {
      "inputs": [],
      "name": "unpause",
      "outputs": [],
      "stateMutability": "nonpayable",
      "type": "function"
    },
    {
      "inputs": [],
      "name": "getRolexOwner",
      "outputs": [
        {
          "internalType": "address",
          "name": "",
          "type": "address"
        }
      ],
      "stateMutability": "view",
      "type": "function",
      "constant": true
    },
    {
      "inputs": [
        {
          "internalType": "uint256",
          "name": "tokenId",
          "type": "uint256"
        }
      ],
      "name": "tokenURI",
      "outputs": [
        {
          "internalType": "string",
          "name": "",
          "type": "string"
        }
      ],
      "stateMutability": "view",
      "type": "function",
      "constant": true
    },
    {
      "inputs": [],
      "name": "mintAll",
      "outputs": [],
      "stateMutability": "nonpayable",
      "type": "function"
    },
    {
      "inputs": [
        {
          "internalType": "uint256",
          "name": "tokenId",
          "type": "uint256"
        }
      ],
      "name": "mintNFT",
      "outputs": [],
      "stateMutability": "nonpayable",
      "type": "function"
    }
  ],
  "bytecode": "0x60806040526004600f553480156200001657600080fd5b506040518060400160405280601581526020017f526f6c6578203230323220436f6c6c656374696f6e00000000000000000000008152506040518060400160405280600881526020017f524f4c45582d3232000000000000000000000000000000000000000000000000815250604051806080016040528060518152602001620050026051913982828160029081620000b09190620006f2565b508060039081620000c29190620006f2565b5050506000600c60006101000a81548160ff02191690831515021790555080600e9081620000f19190620006f2565b50620001166000801b6200010a620001e260201b60201c565b620001ea60201b60201c565b620001577f9f2df0fed2c77648de5860a4cc508cd0818c85b8b8a1ab4ceeef8d981c8956a66200014b620001e260201b60201c565b620001ea60201b60201c565b620001987f65d7a28e3265b37a6474929f336521b332c1681b933f6cb9f3376673440d862a6200018c620001e260201b60201c565b620001ea60201b60201c565b50505033601060006101000a81548173ffffffffffffffffffffffffffffffffffffffff021916908373ffffffffffffffffffffffffffffffffffffffff160217905550620007d9565b600033905090565b620001fc82826200020060201b60201c565b5050565b6200021782826200024860201b620012fe1760201c565b6200024381600160008581526020019081526020016000206200033960201b620013de1790919060201c565b505050565b6200025a82826200037160201b60201c565b6200033557600160008084815260200190815260200160002060000160008373ffffffffffffffffffffffffffffffffffffffff1673ffffffffffffffffffffffffffffffffffffffff16815260200190815260200160002060006101000a81548160ff021916908315150217905550620002da620001e260201b60201c565b73ffffffffffffffffffffffffffffffffffffffff168173ffffffffffffffffffffffffffffffffffffffff16837f2f8788117e7eff1d82e926ec794901d17c78024a50270940304540a733656f0d60405160405180910390a45b5050565b600062000369836000018373ffffffffffffffffffffffffffffffffffffffff1660001b620003db60201b60201c565b905092915050565b600080600084815260200190815260200160002060000160008373ffffffffffffffffffffffffffffffffffffffff1673ffffffffffffffffffffffffffffffffffffffff16815260200190815260200160002060009054906101000a900460ff16905092915050565b6000620003ef83836200045560201b60201c565b6200044a5782600001829080600181540180825580915050600190039060005260206000200160009091909190915055826000018054905083600101600084815260200190815260200160002081905550600190506200044f565b600090505b92915050565b600080836001016000848152602001908152602001600020541415905092915050565b600081519050919050565b7f4e487b7100000000000000000000000000000000000000000000000000000000600052604160045260246000fd5b7f4e487b7100000000000000000000000000000000000000000000000000000000600052602260045260246000fd5b60006002820490506001821680620004fa57607f821691505b60208210810362000510576200050f620004b2565b5b50919050565b60008190508160005260206000209050919050565b60006020601f8301049050919050565b600082821b905092915050565b6000600883026200057a7fffffffffffffffffffffffffffffffffffffffffffffffffffffffffffffffff826200053b565b6200058686836200053b565b95508019841693508086168417925050509392505050565b6000819050919050565b6000819050919050565b6000620005d3620005cd620005c7846200059e565b620005a8565b6200059e565b9050919050565b6000819050919050565b620005ef83620005b2565b62000607620005fe82620005da565b84845462000548565b825550505050565b600090565b6200061e6200060f565b6200062b818484620005e4565b505050565b5b8181101562000653576200064760008262000614565b60018101905062000631565b5050565b601f821115620006a2576200066c8162000516565b62000677846200052b565b8101602085101562000687578190505b6200069f62000696856200052b565b83018262000630565b50505b505050565b600082821c905092915050565b6000620006c760001984600802620006a7565b1980831691505092915050565b6000620006e28383620006b4565b9150826002028217905092915050565b620006fd8262000478565b67ffffffffffffffff81111562000719576200071862000483565b5b620007258254620004e1565b6200073282828562000657565b600060209050601f8311600181146200076a576000841562000755578287015190505b620007618582620006d4565b865550620007d1565b601f1984166200077a8662000516565b60005b82811015620007a4578489015182556001820191506020850194506020810190506200077d565b86831015620007c45784890151620007c0601f891682620006b4565b8355505b6001600288020188555050505b505050505050565b61481980620007e96000396000f3fe608060405234801561001057600080fd5b50600436106102275760003560e01c80636a62784211610130578063a217fddf116100b8578063d53913931161007c578063d539139314610662578063d547741f14610680578063d5abeb011461069c578063e63ab1e9146106ba578063e985e9c5146106d857610227565b8063a217fddf146105ac578063a22cb465146105ca578063b88d4fde146105e6578063c87b56dd14610602578063ca15c8731461063257610227565b806391d14854116100ff57806391d1485414610506578063926427441461053657806395d89b411461055257806399480eaa146105705780639f181b5e1461058e57610227565b80636a6278421461048057806370a082311461049c5780638456cb59146104cc5780639010d07c146104d657610227565b806336568abe116101b3578063436e808311610182578063436e8083146103da5780634f6ccce7146103f8578063595882b3146104285780635c975abb146104325780636352211e1461045057610227565b806336568abe1461037c5780633f4ba83a1461039857806342842e0e146103a257806342966c68146103be57610227565b806318160ddd116101fa57806318160ddd146102c657806323b872dd146102e4578063248a9ca3146103005780632f2ff15d146103305780632f745c591461034c57610227565b806301ffc9a71461022c57806306fdde031461025c578063081812fc1461027a578063095ea7b3146102aa575b600080fd5b610246600480360381019061024191906130e8565b610708565b6040516102539190613130565b60405180910390f35b61026461071a565b60405161027191906131db565b60405180910390f35b610294600480360381019061028f9190613233565b6107ac565b6040516102a191906132a1565b60405180910390f35b6102c460048036038101906102bf91906132e8565b6107f2565b005b6102ce610909565b6040516102db9190613337565b60405180910390f35b6102fe60048036038101906102f99190613352565b610916565b005b61031a600480360381019061031591906133db565b610976565b6040516103279190613417565b60405180910390f35b61034a60048036038101906103459190613432565b610995565b005b610366600480360381019061036191906132e8565b6109b6565b6040516103739190613337565b60405180910390f35b61039660048036038101906103919190613432565b610a5b565b005b6103a0610ade565b005b6103bc60048036038101906103b79190613352565b610b58565b005b6103d860048036038101906103d39190613233565b610b78565b005b6103e2610bd4565b6040516103ef91906132a1565b60405180910390f35b610412600480360381019061040d9190613233565b610bfa565b60405161041f9190613337565b60405180910390f35b610430610c6b565b005b61043a610cae565b6040516104479190613130565b60405180910390f35b61046a60048036038101906104659190613233565b610cc5565b60405161047791906132a1565b60405180910390f35b61049a60048036038101906104959190613472565b610d76565b005b6104b660048036038101906104b19190613472565b610e06565b6040516104c39190613337565b60405180910390f35b6104d4610ebd565b005b6104f060048036038101906104eb919061349f565b610f37565b6040516104fd91906132a1565b60405180910390f35b610520600480360381019061051b9190613432565b610f66565b60405161052d9190613130565b60405180910390f35b610550600480360381019061054b9190613233565b610fd0565b005b61055a611065565b60405161056791906131db565b60405180910390f35b6105786110f7565b60405161058591906132a1565b60405180910390f35b610596611121565b6040516105a39190613337565b60405180910390f35b6105b4611127565b6040516105c19190613417565b60405180910390f35b6105e460048036038101906105df919061350b565b61112e565b005b61060060048036038101906105fb9190613680565b611144565b005b61061c60048036038101906106179190613233565b6111a6565b60405161062991906131db565b60405180910390f35b61064c600480360381019061064791906133db565b6111d7565b6040516106599190613337565b60405180910390f35b61066a6111fb565b6040516106779190613417565b60405180910390f35b61069a60048036038101906106959190613432565b61121f565b005b6106a4611240565b6040516106b1919061371c565b60405180910390f35b6106c2611246565b6040516106cf9190613417565b60405180910390f35b6106f260048036038101906106ed9190613737565b61126a565b6040516106ff9190613130565b60405180910390f35b60006107138261140e565b9050919050565b606060028054610729906137a6565b80601f0160208091040260200160405190810160405280929190818152602001828054610755906137a6565b80156107a25780601f10610777576101008083540402835291602001916107a2565b820191906000526020600020905b81548152906001019060200180831161078557829003601f168201915b5050505050905090565b60006107b782611488565b6006600083815260200190815260200160002060009054906101000a900473ffffffffffffffffffffffffffffffffffffffff169050919050565b60006107fd82610cc5565b90508073ffffffffffffffffffffffffffffffffffffffff168373ffffffffffffffffffffffffffffffffffffffff160361086d576040517f08c379a000000000000000000000000000000000000000000000000000000000815260040161086490613849565b60405180910390fd5b8073ffffffffffffffffffffffffffffffffffffffff1661088c6114d3565b73ffffffffffffffffffffffffffffffffffffffff1614806108bb57506108ba816108b56114d3565b61126a565b5b6108fa576040517f08c379a00000000000000000000000000000000000000000000000000000000081526004016108f1906138db565b60405180910390fd5b61090483836114db565b505050565b6000600a80549050905090565b6109276109216114d3565b82611594565b610966576040517f08c379a000000000000000000000000000000000000000000000000000000000815260040161095d9061396d565b60405180910390fd5b610971838383611629565b505050565b6000806000838152602001908152602001600020600101549050919050565b61099e82610976565b6109a78161188f565b6109b183836118a3565b505050565b60006109c183610e06565b8210610a02576040517f08c379a00000000000000000000000000000000000000000000000000000000081526004016109f9906139ff565b60405180910390fd5b600860008473ffffffffffffffffffffffffffffffffffffffff1673ffffffffffffffffffffffffffffffffffffffff168152602001908152602001600020600083815260200190815260200160002054905092915050565b610a636114d3565b73ffffffffffffffffffffffffffffffffffffffff168173ffffffffffffffffffffffffffffffffffffffff1614610ad0576040517f08c379a0000000000000000000000000000000000000000000000000000000008152600401610ac790613a91565b60405180910390fd5b610ada82826118d7565b5050565b610b0f7f65d7a28e3265b37a6474929f336521b332c1681b933f6cb9f3376673440d862a610b0a6114d3565b610f66565b610b4e576040517f08c379a0000000000000000000000000000000000000000000000000000000008152600401610b4590613b23565b60405180910390fd5b610b5661190b565b565b610b7383838360405180602001604052806000815250611144565b505050565b610b89610b836114d3565b82611594565b610bc8576040517f08c379a0000000000000000000000000000000000000000000000000000000008152600401610bbf9061396d565b60405180910390fd5b610bd18161196e565b50565b601060009054906101000a900473ffffffffffffffffffffffffffffffffffffffff1681565b6000610c04610909565b8210610c45576040517f08c379a0000000000000000000000000000000000000000000000000000000008152600401610c3c90613bb5565b60405180910390fd5b600a8281548110610c5957610c58613bd5565b5b90600052602060002001549050919050565b60005b600f548113610cab57610c8033610d76565b60116000815480929190610c9390613c33565b91905055508080610ca390613c7b565b915050610c6e565b50565b6000600c60009054906101000a900460ff16905090565b6000806004600084815260200190815260200160002060009054906101000a900473ffffffffffffffffffffffffffffffffffffffff169050600073ffffffffffffffffffffffffffffffffffffffff168173ffffffffffffffffffffffffffffffffffffffff1603610d6d576040517f08c379a0000000000000000000000000000000000000000000000000000000008152600401610d6490613d0f565b60405180910390fd5b80915050919050565b610da77f9f2df0fed2c77648de5860a4cc508cd0818c85b8b8a1ab4ceeef8d981c8956a6610da26114d3565b610f66565b610de6576040517f08c379a0000000000000000000000000000000000000000000000000000000008152600401610ddd90613da1565b60405180910390fd5b610df981610df4600d611a8b565b611a99565b610e03600d611c72565b50565b60008073ffffffffffffffffffffffffffffffffffffffff168273ffffffffffffffffffffffffffffffffffffffff1603610e76576040517f08c379a0000000000000000000000000000000000000000000000000000000008152600401610e6d90613e33565b60405180910390fd5b600560008373ffffffffffffffffffffffffffffffffffffffff1673ffffffffffffffffffffffffffffffffffffffff168152602001908152602001600020549050919050565b610eee7f65d7a28e3265b37a6474929f336521b332c1681b933f6cb9f3376673440d862a610ee96114d3565b610f66565b610f2d576040517f08c379a0000000000000000000000000000000000000000000000000000000008152600401610f2490613ec5565b60405180910390fd5b610f35611c88565b565b6000610f5e8260016000868152602001908152602001600020611ceb90919063ffffffff16565b905092915050565b600080600084815260200190815260200160002060000160008373ffffffffffffffffffffffffffffffffffffffff1673ffffffffffffffffffffffffffffffffffffffff16815260200190815260200160002060009054906101000a900460ff16905092915050565b6110017f9f2df0fed2c77648de5860a4cc508cd0818c85b8b8a1ab4ceeef8d981c8956a6610ffc6114d3565b610f66565b611040576040517f08c379a000000000000000000000000000000000000000000000000000000000815260040161103790613da1565b60405180910390fd5b6011600081548092919061105390613c33565b91905055506110623382611a99565b50565b606060038054611074906137a6565b80601f01602080910402602001604051908101604052809291908181526020018280546110a0906137a6565b80156110ed5780601f106110c2576101008083540402835291602001916110ed565b820191906000526020600020905b8154815290600101906020018083116110d057829003601f168201915b5050505050905090565b6000601060009054906101000a900473ffffffffffffffffffffffffffffffffffffffff16905090565b60115481565b6000801b81565b6111406111396114d3565b8383611d05565b5050565b61115561114f6114d3565b83611594565b611194576040517f08c379a000000000000000000000000000000000000000000000000000000000815260040161118b9061396d565b60405180910390fd5b6111a084848484611e71565b50505050565b60606111b182611ecd565b6040516020016111c19190613f6d565b6040516020818303038152906040529050919050565b60006111f460016000848152602001908152602001600020611f35565b9050919050565b7f9f2df0fed2c77648de5860a4cc508cd0818c85b8b8a1ab4ceeef8d981c8956a681565b61122882610976565b6112318161188f565b61123b83836118d7565b505050565b600f5481565b7f65d7a28e3265b37a6474929f336521b332c1681b933f6cb9f3376673440d862a81565b6000600760008473ffffffffffffffffffffffffffffffffffffffff1673ffffffffffffffffffffffffffffffffffffffff16815260200190815260200160002060008373ffffffffffffffffffffffffffffffffffffffff1673ffffffffffffffffffffffffffffffffffffffff16815260200190815260200160002060009054906101000a900460ff16905092915050565b6113088282610f66565b6113da57600160008084815260200190815260200160002060000160008373ffffffffffffffffffffffffffffffffffffffff1673ffffffffffffffffffffffffffffffffffffffff16815260200190815260200160002060006101000a81548160ff02191690831515021790555061137f6114d3565b73ffffffffffffffffffffffffffffffffffffffff168173ffffffffffffffffffffffffffffffffffffffff16837f2f8788117e7eff1d82e926ec794901d17c78024a50270940304540a733656f0d60405160405180910390a45b5050565b6000611406836000018373ffffffffffffffffffffffffffffffffffffffff1660001b611f4a565b905092915050565b60007f780e9d63000000000000000000000000000000000000000000000000000000007bffffffffffffffffffffffffffffffffffffffffffffffffffffffff1916827bffffffffffffffffffffffffffffffffffffffffffffffffffffffff19161480611481575061148082611fba565b5b9050919050565b6114918161209c565b6114d0576040517f08c379a00000000000000000000000000000000000000000000000000000000081526004016114c790613d0f565b60405180910390fd5b50565b600033905090565b816006600083815260200190815260200160002060006101000a81548173ffffffffffffffffffffffffffffffffffffffff021916908373ffffffffffffffffffffffffffffffffffffffff160217905550808273ffffffffffffffffffffffffffffffffffffffff1661154e83610cc5565b73ffffffffffffffffffffffffffffffffffffffff167f8c5be1e5ebec7d5bd14f71427d1e84f3dd0314c0f7b2291e5b200ac8c7c3b92560405160405180910390a45050565b6000806115a083610cc5565b90508073ffffffffffffffffffffffffffffffffffffffff168473ffffffffffffffffffffffffffffffffffffffff1614806115e257506115e1818561126a565b5b8061162057508373ffffffffffffffffffffffffffffffffffffffff16611608846107ac565b73ffffffffffffffffffffffffffffffffffffffff16145b91505092915050565b8273ffffffffffffffffffffffffffffffffffffffff1661164982610cc5565b73ffffffffffffffffffffffffffffffffffffffff161461169f576040517f08c379a000000000000000000000000000000000000000000000000000000000815260040161169690614001565b60405180910390fd5b600073ffffffffffffffffffffffffffffffffffffffff168273ffffffffffffffffffffffffffffffffffffffff160361170e576040517f08c379a000000000000000000000000000000000000000000000000000000000815260040161170590614093565b60405180910390fd5b611719838383612108565b6117246000826114db565b6001600560008573ffffffffffffffffffffffffffffffffffffffff1673ffffffffffffffffffffffffffffffffffffffff168152602001908152602001600020600082825461177491906140b3565b925050819055506001600560008473ffffffffffffffffffffffffffffffffffffffff1673ffffffffffffffffffffffffffffffffffffffff16815260200190815260200160002060008282546117cb91906140e7565b92505081905550816004600083815260200190815260200160002060006101000a81548173ffffffffffffffffffffffffffffffffffffffff021916908373ffffffffffffffffffffffffffffffffffffffff160217905550808273ffffffffffffffffffffffffffffffffffffffff168473ffffffffffffffffffffffffffffffffffffffff167fddf252ad1be2c89b69c2b068fc378daa952ba7f163c4a11628f55a4df523b3ef60405160405180910390a461188a838383612118565b505050565b6118a08161189b6114d3565b61211d565b50565b6118ad82826112fe565b6118d281600160008581526020019081526020016000206113de90919063ffffffff16565b505050565b6118e182826121ba565b611906816001600085815260200190815260200160002061229b90919063ffffffff16565b505050565b6119136122cb565b6000600c60006101000a81548160ff0219169083151502179055507f5db9ee0a495bf2e6ff9c91a7834c1ba4fdd244a5e8aa4e537bd38aeae4b073aa6119576114d3565b60405161196491906132a1565b60405180910390a1565b600061197982610cc5565b905061198781600084612108565b6119926000836114db565b6001600560008373ffffffffffffffffffffffffffffffffffffffff1673ffffffffffffffffffffffffffffffffffffffff16815260200190815260200160002060008282546119e291906140b3565b925050819055506004600083815260200190815260200160002060006101000a81549073ffffffffffffffffffffffffffffffffffffffff021916905581600073ffffffffffffffffffffffffffffffffffffffff168273ffffffffffffffffffffffffffffffffffffffff167fddf252ad1be2c89b69c2b068fc378daa952ba7f163c4a11628f55a4df523b3ef60405160405180910390a4611a8781600084612118565b5050565b600081600001549050919050565b600073ffffffffffffffffffffffffffffffffffffffff168273ffffffffffffffffffffffffffffffffffffffff1603611b08576040517f08c379a0000000000000000000000000000000000000000000000000000000008152600401611aff90614167565b60405180910390fd5b611b118161209c565b15611b51576040517f08c379a0000000000000000000000000000000000000000000000000000000008152600401611b48906141d3565b60405180910390fd5b611b5d60008383612108565b6001600560008473ffffffffffffffffffffffffffffffffffffffff1673ffffffffffffffffffffffffffffffffffffffff1681526020019081526020016000206000828254611bad91906140e7565b92505081905550816004600083815260200190815260200160002060006101000a81548173ffffffffffffffffffffffffffffffffffffffff021916908373ffffffffffffffffffffffffffffffffffffffff160217905550808273ffffffffffffffffffffffffffffffffffffffff16600073ffffffffffffffffffffffffffffffffffffffff167fddf252ad1be2c89b69c2b068fc378daa952ba7f163c4a11628f55a4df523b3ef60405160405180910390a4611c6e60008383612118565b5050565b6001816000016000828254019250508190555050565b611c90612314565b6001600c60006101000a81548160ff0219169083151502179055507f62e78cea01bee320cd4e420270b5ea74000d11b0c9f74754ebdbfc544b05a258611cd46114d3565b604051611ce191906132a1565b60405180910390a1565b6000611cfa836000018361235e565b60001c905092915050565b8173ffffffffffffffffffffffffffffffffffffffff168373ffffffffffffffffffffffffffffffffffffffff1603611d73576040517f08c379a0000000000000000000000000000000000000000000000000000000008152600401611d6a9061423f565b60405180910390fd5b80600760008573ffffffffffffffffffffffffffffffffffffffff1673ffffffffffffffffffffffffffffffffffffffff16815260200190815260200160002060008473ffffffffffffffffffffffffffffffffffffffff1673ffffffffffffffffffffffffffffffffffffffff16815260200190815260200160002060006101000a81548160ff0219169083151502179055508173ffffffffffffffffffffffffffffffffffffffff168373ffffffffffffffffffffffffffffffffffffffff167f17307eab39ab6107e8899845ad3d59bd9653f200f220920489ca2b5937696c3183604051611e649190613130565b60405180910390a3505050565b611e7c848484611629565b611e8884848484612389565b611ec7576040517f08c379a0000000000000000000000000000000000000000000000000000000008152600401611ebe906142d1565b60405180910390fd5b50505050565b6060611ed882611488565b6000611ee2612510565b90506000815111611f025760405180602001604052806000815250611f2d565b80611f0c846125a2565b604051602001611f1d9291906142f1565b6040516020818303038152906040525b915050919050565b6000611f4382600001612702565b9050919050565b6000611f568383612713565b611faf578260000182908060018154018082558091505060019003906000526020600020016000909190919091505582600001805490508360010160008481526020019081526020016000208190555060019050611fb4565b600090505b92915050565b60007f80ac58cd000000000000000000000000000000000000000000000000000000007bffffffffffffffffffffffffffffffffffffffffffffffffffffffff1916827bffffffffffffffffffffffffffffffffffffffffffffffffffffffff1916148061208557507f5b5e139f000000000000000000000000000000000000000000000000000000007bffffffffffffffffffffffffffffffffffffffffffffffffffffffff1916827bffffffffffffffffffffffffffffffffffffffffffffffffffffffff1916145b80612095575061209482612736565b5b9050919050565b60008073ffffffffffffffffffffffffffffffffffffffff166004600084815260200190815260200160002060009054906101000a900473ffffffffffffffffffffffffffffffffffffffff1673ffffffffffffffffffffffffffffffffffffffff1614159050919050565b6121138383836127b0565b505050565b505050565b6121278282610f66565b6121b65761214c8173ffffffffffffffffffffffffffffffffffffffff166014612808565b61215a8360001c6020612808565b60405160200161216b9291906143ad565b6040516020818303038152906040526040517f08c379a00000000000000000000000000000000000000000000000000000000081526004016121ad91906131db565b60405180910390fd5b5050565b6121c48282610f66565b1561229757600080600084815260200190815260200160002060000160008373ffffffffffffffffffffffffffffffffffffffff1673ffffffffffffffffffffffffffffffffffffffff16815260200190815260200160002060006101000a81548160ff02191690831515021790555061223c6114d3565b73ffffffffffffffffffffffffffffffffffffffff168173ffffffffffffffffffffffffffffffffffffffff16837ff6391f5c32d9c69d2a47ea670b442974b53935d1edc7fd64eb21e047a839171b60405160405180910390a45b5050565b60006122c3836000018373ffffffffffffffffffffffffffffffffffffffff1660001b612a44565b905092915050565b6122d3610cae565b612312576040517f08c379a000000000000000000000000000000000000000000000000000000000815260040161230990614433565b60405180910390fd5b565b61231c610cae565b1561235c576040517f08c379a00000000000000000000000000000000000000000000000000000000081526004016123539061449f565b60405180910390fd5b565b600082600001828154811061237657612375613bd5565b5b9060005260206000200154905092915050565b60006123aa8473ffffffffffffffffffffffffffffffffffffffff16612b58565b15612503578373ffffffffffffffffffffffffffffffffffffffff1663150b7a026123d36114d3565b8786866040518563ffffffff1660e01b81526004016123f59493929190614514565b6020604051808303816000875af192505050801561243157506040513d601f19601f8201168201806040525081019061242e9190614575565b60015b6124b3573d8060008114612461576040519150601f19603f3d011682016040523d82523d6000602084013e612466565b606091505b5060008151036124ab576040517f08c379a00000000000000000000000000000000000000000000000000000000081526004016124a2906142d1565b60405180910390fd5b805181602001fd5b63150b7a0260e01b7bffffffffffffffffffffffffffffffffffffffffffffffffffffffff1916817bffffffffffffffffffffffffffffffffffffffffffffffffffffffff191614915050612508565b600190505b949350505050565b6060600e805461251f906137a6565b80601f016020809104026020016040519081016040528092919081815260200182805461254b906137a6565b80156125985780601f1061256d57610100808354040283529160200191612598565b820191906000526020600020905b81548152906001019060200180831161257b57829003601f168201915b5050505050905090565b6060600082036125e9576040518060400160405280600181526020017f300000000000000000000000000000000000000000000000000000000000000081525090506126fd565b600082905060005b6000821461261b57808061260490613c33565b915050600a8261261491906145d1565b91506125f1565b60008167ffffffffffffffff81111561263757612636613555565b5b6040519080825280601f01601f1916602001820160405280156126695781602001600182028036833780820191505090505b5090505b600085146126f65760018261268291906140b3565b9150600a856126919190614602565b603061269d91906140e7565b60f81b8183815181106126b3576126b2613bd5565b5b60200101907effffffffffffffffffffffffffffffffffffffffffffffffffffffffffffff1916908160001a905350600a856126ef91906145d1565b945061266d565b8093505050505b919050565b600081600001805490509050919050565b600080836001016000848152602001908152602001600020541415905092915050565b60007f5a05180f000000000000000000000000000000000000000000000000000000007bffffffffffffffffffffffffffffffffffffffffffffffffffffffff1916827bffffffffffffffffffffffffffffffffffffffffffffffffffffffff191614806127a957506127a882612b7b565b5b9050919050565b6127bb838383612bf5565b6127c3610cae565b15612803576040517f08c379a00000000000000000000000000000000000000000000000000000000081526004016127fa906146a5565b60405180910390fd5b505050565b60606000600283600261281b91906146c5565b61282591906140e7565b67ffffffffffffffff81111561283e5761283d613555565b5b6040519080825280601f01601f1916602001820160405280156128705781602001600182028036833780820191505090505b5090507f3000000000000000000000000000000000000000000000000000000000000000816000815181106128a8576128a7613bd5565b5b60200101907effffffffffffffffffffffffffffffffffffffffffffffffffffffffffffff1916908160001a9053507f78000000000000000000000000000000000000000000000000000000000000008160018151811061290c5761290b613bd5565b5b60200101907effffffffffffffffffffffffffffffffffffffffffffffffffffffffffffff1916908160001a9053506000600184600261294c91906146c5565b61295691906140e7565b90505b60018111156129f6577f3031323334353637383961626364656600000000000000000000000000000000600f86166010811061299857612997613bd5565b5b1a60f81b8282815181106129af576129ae613bd5565b5b60200101907effffffffffffffffffffffffffffffffffffffffffffffffffffffffffffff1916908160001a905350600485901c9450806129ef9061471f565b9050612959565b5060008414612a3a576040517f08c379a0000000000000000000000000000000000000000000000000000000008152600401612a3190614794565b60405180910390fd5b8091505092915050565b60008083600101600084815260200190815260200160002054905060008114612b4c576000600182612a7691906140b3565b9050600060018660000180549050612a8e91906140b3565b9050818114612afd576000866000018281548110612aaf57612aae613bd5565b5b9060005260206000200154905080876000018481548110612ad357612ad2613bd5565b5b90600052602060002001819055508387600101600083815260200190815260200160002081905550505b85600001805480612b1157612b106147b4565b5b600190038181906000526020600020016000905590558560010160008681526020019081526020016000206000905560019350505050612b52565b60009150505b92915050565b6000808273ffffffffffffffffffffffffffffffffffffffff163b119050919050565b60007f7965db0b000000000000000000000000000000000000000000000000000000007bffffffffffffffffffffffffffffffffffffffffffffffffffffffff1916827bffffffffffffffffffffffffffffffffffffffffffffffffffffffff19161480612bee5750612bed82612d07565b5b9050919050565b612c00838383612d71565b600073ffffffffffffffffffffffffffffffffffffffff168373ffffffffffffffffffffffffffffffffffffffff1603612c4257612c3d81612d76565b612c81565b8173ffffffffffffffffffffffffffffffffffffffff168373ffffffffffffffffffffffffffffffffffffffff1614612c8057612c7f8382612dbf565b5b5b600073ffffffffffffffffffffffffffffffffffffffff168273ffffffffffffffffffffffffffffffffffffffff1603612cc357612cbe81612f2c565b612d02565b8273ffffffffffffffffffffffffffffffffffffffff168273ffffffffffffffffffffffffffffffffffffffff1614612d0157612d008282612ffd565b5b5b505050565b60007f01ffc9a7000000000000000000000000000000000000000000000000000000007bffffffffffffffffffffffffffffffffffffffffffffffffffffffff1916827bffffffffffffffffffffffffffffffffffffffffffffffffffffffff1916149050919050565b505050565b600a80549050600b600083815260200190815260200160002081905550600a81908060018154018082558091505060019003906000526020600020016000909190919091505550565b60006001612dcc84610e06565b612dd691906140b3565b9050600060096000848152602001908152602001600020549050818114612ebb576000600860008673ffffffffffffffffffffffffffffffffffffffff1673ffffffffffffffffffffffffffffffffffffffff168152602001908152602001600020600084815260200190815260200160002054905080600860008773ffffffffffffffffffffffffffffffffffffffff1673ffffffffffffffffffffffffffffffffffffffff168152602001908152602001600020600084815260200190815260200160002081905550816009600083815260200190815260200160002081905550505b6009600084815260200190815260200160002060009055600860008573ffffffffffffffffffffffffffffffffffffffff1673ffffffffffffffffffffffffffffffffffffffff16815260200190815260200160002060008381526020019081526020016000206000905550505050565b60006001600a80549050612f4091906140b3565b90506000600b60008481526020019081526020016000205490506000600a8381548110612f7057612f6f613bd5565b5b9060005260206000200154905080600a8381548110612f9257612f91613bd5565b5b906000526020600020018190555081600b600083815260200190815260200160002081905550600b600085815260200190815260200160002060009055600a805480612fe157612fe06147b4565b5b6001900381819060005260206000200160009055905550505050565b600061300883610e06565b905081600860008573ffffffffffffffffffffffffffffffffffffffff1673ffffffffffffffffffffffffffffffffffffffff168152602001908152602001600020600083815260200190815260200160002081905550806009600084815260200190815260200160002081905550505050565b6000604051905090565b600080fd5b600080fd5b60007fffffffff0000000000000000000000000000000000000000000000000000000082169050919050565b6130c581613090565b81146130d057600080fd5b50565b6000813590506130e2816130bc565b92915050565b6000602082840312156130fe576130fd613086565b5b600061310c848285016130d3565b91505092915050565b60008115159050919050565b61312a81613115565b82525050565b60006020820190506131456000830184613121565b92915050565b600081519050919050565b600082825260208201905092915050565b60005b8381101561318557808201518184015260208101905061316a565b60008484015250505050565b6000601f19601f8301169050919050565b60006131ad8261314b565b6131b78185613156565b93506131c7818560208601613167565b6131d081613191565b840191505092915050565b600060208201905081810360008301526131f581846131a2565b905092915050565b6000819050919050565b613210816131fd565b811461321b57600080fd5b50565b60008135905061322d81613207565b92915050565b60006020828403121561324957613248613086565b5b60006132578482850161321e565b91505092915050565b600073ffffffffffffffffffffffffffffffffffffffff82169050919050565b600061328b82613260565b9050919050565b61329b81613280565b82525050565b60006020820190506132b66000830184613292565b92915050565b6132c581613280565b81146132d057600080fd5b50565b6000813590506132e2816132bc565b92915050565b600080604083850312156132ff576132fe613086565b5b600061330d858286016132d3565b925050602061331e8582860161321e565b9150509250929050565b613331816131fd565b82525050565b600060208201905061334c6000830184613328565b92915050565b60008060006060848603121561336b5761336a613086565b5b6000613379868287016132d3565b935050602061338a868287016132d3565b925050604061339b8682870161321e565b9150509250925092565b6000819050919050565b6133b8816133a5565b81146133c357600080fd5b50565b6000813590506133d5816133af565b92915050565b6000602082840312156133f1576133f0613086565b5b60006133ff848285016133c6565b91505092915050565b613411816133a5565b82525050565b600060208201905061342c6000830184613408565b92915050565b6000806040838503121561344957613448613086565b5b6000613457858286016133c6565b9250506020613468858286016132d3565b9150509250929050565b60006020828403121561348857613487613086565b5b6000613496848285016132d3565b91505092915050565b600080604083850312156134b6576134b5613086565b5b60006134c4858286016133c6565b92505060206134d58582860161321e565b9150509250929050565b6134e881613115565b81146134f357600080fd5b50565b600081359050613505816134df565b92915050565b6000806040838503121561352257613521613086565b5b6000613530858286016132d3565b9250506020613541858286016134f6565b9150509250929050565b600080fd5b600080fd5b7f4e487b7100000000000000000000000000000000000000000000000000000000600052604160045260246000fd5b61358d82613191565b810181811067ffffffffffffffff821117156135ac576135ab613555565b5b80604052505050565b60006135bf61307c565b90506135cb8282613584565b919050565b600067ffffffffffffffff8211156135eb576135ea613555565b5b6135f482613191565b9050602081019050919050565b82818337600083830152505050565b600061362361361e846135d0565b6135b5565b90508281526020810184848401111561363f5761363e613550565b5b61364a848285613601565b509392505050565b600082601f8301126136675761366661354b565b5b8135613677848260208601613610565b91505092915050565b6000806000806080858703121561369a57613699613086565b5b60006136a8878288016132d3565b94505060206136b9878288016132d3565b93505060406136ca8782880161321e565b925050606085013567ffffffffffffffff8111156136eb576136ea61308b565b5b6136f787828801613652565b91505092959194509250565b6000819050919050565b61371681613703565b82525050565b6000602082019050613731600083018461370d565b92915050565b6000806040838503121561374e5761374d613086565b5b600061375c858286016132d3565b925050602061376d858286016132d3565b9150509250929050565b7f4e487b7100000000000000000000000000000000000000000000000000000000600052602260045260246000fd5b600060028204905060018216806137be57607f821691505b6020821081036137d1576137d0613777565b5b50919050565b7f4552433732313a20617070726f76616c20746f2063757272656e74206f776e6560008201527f7200000000000000000000000000000000000000000000000000000000000000602082015250565b6000613833602183613156565b915061383e826137d7565b604082019050919050565b6000602082019050818103600083015261386281613826565b9050919050565b7f4552433732313a20617070726f76652063616c6c6572206973206e6f7420746f60008201527f6b656e206f776e6572206e6f7220617070726f76656420666f7220616c6c0000602082015250565b60006138c5603e83613156565b91506138d082613869565b604082019050919050565b600060208201905081810360008301526138f4816138b8565b9050919050565b7f4552433732313a2063616c6c6572206973206e6f7420746f6b656e206f776e6560008201527f72206e6f7220617070726f766564000000000000000000000000000000000000602082015250565b6000613957602e83613156565b9150613962826138fb565b604082019050919050565b600060208201905081810360008301526139868161394a565b9050919050565b7f455243373231456e756d657261626c653a206f776e657220696e646578206f7560008201527f74206f6620626f756e6473000000000000000000000000000000000000000000602082015250565b60006139e9602b83613156565b91506139f48261398d565b604082019050919050565b60006020820190508181036000830152613a18816139dc565b9050919050565b7f416363657373436f6e74726f6c3a2063616e206f6e6c792072656e6f756e636560008201527f20726f6c657320666f722073656c660000000000000000000000000000000000602082015250565b6000613a7b602f83613156565b9150613a8682613a1f565b604082019050919050565b60006020820190508181036000830152613aaa81613a6e565b9050919050565b7f4552433732315072657365744d696e7465725061757365724175746f49643a2060008201527f6d75737420686176652070617573657220726f6c6520746f20756e7061757365602082015250565b6000613b0d604083613156565b9150613b1882613ab1565b604082019050919050565b60006020820190508181036000830152613b3c81613b00565b9050919050565b7f455243373231456e756d657261626c653a20676c6f62616c20696e646578206f60008201527f7574206f6620626f756e64730000000000000000000000000000000000000000602082015250565b6000613b9f602c83613156565b9150613baa82613b43565b604082019050919050565b60006020820190508181036000830152613bce81613b92565b9050919050565b7f4e487b7100000000000000000000000000000000000000000000000000000000600052603260045260246000fd5b7f4e487b7100000000000000000000000000000000000000000000000000000000600052601160045260246000fd5b6000613c3e826131fd565b91507fffffffffffffffffffffffffffffffffffffffffffffffffffffffffffffffff8203613c7057613c6f613c04565b5b600182019050919050565b6000613c8682613703565b91507f7fffffffffffffffffffffffffffffffffffffffffffffffffffffffffffffff8203613cb857613cb7613c04565b5b600182019050919050565b7f4552433732313a20696e76616c696420746f6b656e2049440000000000000000600082015250565b6000613cf9601883613156565b9150613d0482613cc3565b602082019050919050565b60006020820190508181036000830152613d2881613cec565b9050919050565b7f4552433732315072657365744d696e7465725061757365724175746f49643a2060008201527f6d7573742068617665206d696e74657220726f6c6520746f206d696e74000000602082015250565b6000613d8b603d83613156565b9150613d9682613d2f565b604082019050919050565b60006020820190508181036000830152613dba81613d7e565b9050919050565b7f4552433732313a2061646472657373207a65726f206973206e6f74206120766160008201527f6c6964206f776e65720000000000000000000000000000000000000000000000602082015250565b6000613e1d602983613156565b9150613e2882613dc1565b604082019050919050565b60006020820190508181036000830152613e4c81613e10565b9050919050565b7f4552433732315072657365744d696e7465725061757365724175746f49643a2060008201527f6d75737420686176652070617573657220726f6c6520746f2070617573650000602082015250565b6000613eaf603e83613156565b9150613eba82613e53565b604082019050919050565b60006020820190508181036000830152613ede81613ea2565b9050919050565b600081905092915050565b6000613efb8261314b565b613f058185613ee5565b9350613f15818560208601613167565b80840191505092915050565b7f2e6a736f6e000000000000000000000000000000000000000000000000000000600082015250565b6000613f57600583613ee5565b9150613f6282613f21565b600582019050919050565b6000613f798284613ef0565b9150613f8482613f4a565b915081905092915050565b7f4552433732313a207472616e736665722066726f6d20696e636f72726563742060008201527f6f776e6572000000000000000000000000000000000000000000000000000000602082015250565b6000613feb602583613156565b9150613ff682613f8f565b604082019050919050565b6000602082019050818103600083015261401a81613fde565b9050919050565b7f4552433732313a207472616e7366657220746f20746865207a65726f2061646460008201527f7265737300000000000000000000000000000000000000000000000000000000602082015250565b600061407d602483613156565b915061408882614021565b604082019050919050565b600060208201905081810360008301526140ac81614070565b9050919050565b60006140be826131fd565b91506140c9836131fd565b92508282039050818111156140e1576140e0613c04565b5b92915050565b60006140f2826131fd565b91506140fd836131fd565b925082820190508082111561411557614114613c04565b5b92915050565b7f4552433732313a206d696e7420746f20746865207a65726f2061646472657373600082015250565b6000614151602083613156565b915061415c8261411b565b602082019050919050565b6000602082019050818103600083015261418081614144565b9050919050565b7f4552433732313a20746f6b656e20616c7265616479206d696e74656400000000600082015250565b60006141bd601c83613156565b91506141c882614187565b602082019050919050565b600060208201905081810360008301526141ec816141b0565b9050919050565b7f4552433732313a20617070726f766520746f2063616c6c657200000000000000600082015250565b6000614229601983613156565b9150614234826141f3565b602082019050919050565b600060208201905081810360008301526142588161421c565b9050919050565b7f4552433732313a207472616e7366657220746f206e6f6e20455243373231526560008201527f63656976657220696d706c656d656e7465720000000000000000000000000000602082015250565b60006142bb603283613156565b91506142c68261425f565b604082019050919050565b600060208201905081810360008301526142ea816142ae565b9050919050565b60006142fd8285613ef0565b91506143098284613ef0565b91508190509392505050565b7f416363657373436f6e74726f6c3a206163636f756e7420000000000000000000600082015250565b600061434b601783613ee5565b915061435682614315565b601782019050919050565b7f206973206d697373696e6720726f6c6520000000000000000000000000000000600082015250565b6000614397601183613ee5565b91506143a282614361565b601182019050919050565b60006143b88261433e565b91506143c48285613ef0565b91506143cf8261438a565b91506143db8284613ef0565b91508190509392505050565b7f5061757361626c653a206e6f7420706175736564000000000000000000000000600082015250565b600061441d601483613156565b9150614428826143e7565b602082019050919050565b6000602082019050818103600083015261444c81614410565b9050919050565b7f5061757361626c653a2070617573656400000000000000000000000000000000600082015250565b6000614489601083613156565b915061449482614453565b602082019050919050565b600060208201905081810360008301526144b88161447c565b9050919050565b600081519050919050565b600082825260208201905092915050565b60006144e6826144bf565b6144f081856144ca565b9350614500818560208601613167565b61450981613191565b840191505092915050565b60006080820190506145296000830187613292565b6145366020830186613292565b6145436040830185613328565b818103606083015261455581846144db565b905095945050505050565b60008151905061456f816130bc565b92915050565b60006020828403121561458b5761458a613086565b5b600061459984828501614560565b91505092915050565b7f4e487b7100000000000000000000000000000000000000000000000000000000600052601260045260246000fd5b60006145dc826131fd565b91506145e7836131fd565b9250826145f7576145f66145a2565b5b828204905092915050565b600061460d826131fd565b9150614618836131fd565b925082614628576146276145a2565b5b828206905092915050565b7f4552433732315061757361626c653a20746f6b656e207472616e73666572207760008201527f68696c6520706175736564000000000000000000000000000000000000000000602082015250565b600061468f602b83613156565b915061469a82614633565b604082019050919050565b600060208201905081810360008301526146be81614682565b9050919050565b60006146d0826131fd565b91506146db836131fd565b9250817fffffffffffffffffffffffffffffffffffffffffffffffffffffffffffffffff048311821515161561471457614713613c04565b5b828202905092915050565b600061472a826131fd565b91506000820361473d5761473c613c04565b5b600182039050919050565b7f537472696e67733a20686578206c656e67746820696e73756666696369656e74600082015250565b600061477e602083613156565b915061478982614748565b602082019050919050565b600060208201905081810360008301526147ad81614771565b9050919050565b7f4e487b7100000000000000000000000000000000000000000000000000000000600052603160045260246000fdfea26469706673582212208898327ef283fee43f192c4745dfd3572eb240f45acb315fcea712780ecb926464736f6c6343000810003368747470733a2f2f676174657761792e70696e6174612e636c6f75642f697066732f516d576b7262744547626f636f5967716e75764541553879577777585779423539486a477941454a5648536f48332f",
  "immutableReferences": {},
  "source": "// SPDX-License-Identifier: MIT\npragma solidity ^0.8.0;\n\nimport \"@openzeppelin/contracts/token/ERC721/presets/ERC721PresetMinterPauserAutoId.sol\";\n\ncontract RolexNFT is ERC721PresetMinterPauserAutoId {\n\n    int public maxSupply = 4;\n    address public rolexOwner;\n    uint public tokenCount;\n\n    constructor () ERC721PresetMinterPauserAutoId (\"Rolex 2022 Collection\", \"ROLEX-22\", \"https://gateway.pinata.cloud/ipfs/QmWkrbtEGbocoYgqnuvEAU8yWwwXWyB59HjGyAEJVHSoH3/\") {\n        rolexOwner = msg.sender;\n    }\n\n    function getRolexOwner() public view returns (address) {\n        return rolexOwner;\n    }\n\n    function tokenURI(uint256 tokenId) public view virtual override returns (string memory) {\n       return string(abi.encodePacked(super.tokenURI(tokenId),\".json\"));\n\n    }\n      \n    function mintAll() public {\n\n        for (int i = 0; i <= maxSupply;i++) {\n            mint(msg.sender);\n            tokenCount++;\n        }\n\n    }\n\n        function mintNFT(uint256 tokenId) public virtual{\n        require(hasRole(MINTER_ROLE, _msgSender()), \"ERC721PresetMinterPauserAutoId: must have minter role to mint\");\n        tokenCount++;\n        _mint(msg.sender, tokenId);\n    }\n\n}",
  "sourcePath": "/Users/harveysandhu/Desktop/hss148/msc-vpa-project (GANACHE)/src/Components/Contracts/RolexNFT.sol",
  "compiler": {
    "name": "solc",
    "version": "0.8.16+commit.07a7930e.Emscripten.clang"
  },
  "schemaVersion": "3.4.6",
  "updatedAt": "2022-09-18T20:03:10.012Z",
  "networkType": "ethereum",
  "devdoc": {
    "kind": "dev",
    "methods": {
      "approve(address,uint256)": {
        "details": "See {IERC721-approve}."
      },
      "balanceOf(address)": {
        "details": "See {IERC721-balanceOf}."
      },
      "burn(uint256)": {
        "details": "Burns `tokenId`. See {ERC721-_burn}. Requirements: - The caller must own `tokenId` or be an approved operator."
      },
      "getApproved(uint256)": {
        "details": "See {IERC721-getApproved}."
      },
      "getRoleAdmin(bytes32)": {
        "details": "Returns the admin role that controls `role`. See {grantRole} and {revokeRole}. To change a role's admin, use {_setRoleAdmin}."
      },
      "getRoleMember(bytes32,uint256)": {
        "details": "Returns one of the accounts that have `role`. `index` must be a value between 0 and {getRoleMemberCount}, non-inclusive. Role bearers are not sorted in any particular way, and their ordering may change at any point. WARNING: When using {getRoleMember} and {getRoleMemberCount}, make sure you perform all queries on the same block. See the following https://forum.openzeppelin.com/t/iterating-over-elements-on-enumerableset-in-openzeppelin-contracts/2296[forum post] for more information."
      },
      "getRoleMemberCount(bytes32)": {
        "details": "Returns the number of accounts that have `role`. Can be used together with {getRoleMember} to enumerate all bearers of a role."
      },
      "grantRole(bytes32,address)": {
        "details": "Grants `role` to `account`. If `account` had not been already granted `role`, emits a {RoleGranted} event. Requirements: - the caller must have ``role``'s admin role. May emit a {RoleGranted} event."
      },
      "hasRole(bytes32,address)": {
        "details": "Returns `true` if `account` has been granted `role`."
      },
      "isApprovedForAll(address,address)": {
        "details": "See {IERC721-isApprovedForAll}."
      },
      "mint(address)": {
        "details": "Creates a new token for `to`. Its token ID will be automatically assigned (and available on the emitted {IERC721-Transfer} event), and the token URI autogenerated based on the base URI passed at construction. See {ERC721-_mint}. Requirements: - the caller must have the `MINTER_ROLE`."
      },
      "name()": {
        "details": "See {IERC721Metadata-name}."
      },
      "ownerOf(uint256)": {
        "details": "See {IERC721-ownerOf}."
      },
      "pause()": {
        "details": "Pauses all token transfers. See {ERC721Pausable} and {Pausable-_pause}. Requirements: - the caller must have the `PAUSER_ROLE`."
      },
      "paused()": {
        "details": "Returns true if the contract is paused, and false otherwise."
      },
      "renounceRole(bytes32,address)": {
        "details": "Revokes `role` from the calling account. Roles are often managed via {grantRole} and {revokeRole}: this function's purpose is to provide a mechanism for accounts to lose their privileges if they are compromised (such as when a trusted device is misplaced). If the calling account had been revoked `role`, emits a {RoleRevoked} event. Requirements: - the caller must be `account`. May emit a {RoleRevoked} event."
      },
      "revokeRole(bytes32,address)": {
        "details": "Revokes `role` from `account`. If `account` had been granted `role`, emits a {RoleRevoked} event. Requirements: - the caller must have ``role``'s admin role. May emit a {RoleRevoked} event."
      },
      "safeTransferFrom(address,address,uint256)": {
        "details": "See {IERC721-safeTransferFrom}."
      },
      "safeTransferFrom(address,address,uint256,bytes)": {
        "details": "See {IERC721-safeTransferFrom}."
      },
      "setApprovalForAll(address,bool)": {
        "details": "See {IERC721-setApprovalForAll}."
      },
      "supportsInterface(bytes4)": {
        "details": "See {IERC165-supportsInterface}."
      },
      "symbol()": {
        "details": "See {IERC721Metadata-symbol}."
      },
      "tokenByIndex(uint256)": {
        "details": "See {IERC721Enumerable-tokenByIndex}."
      },
      "tokenOfOwnerByIndex(address,uint256)": {
        "details": "See {IERC721Enumerable-tokenOfOwnerByIndex}."
      },
      "tokenURI(uint256)": {
        "details": "See {IERC721Metadata-tokenURI}."
      },
      "totalSupply()": {
        "details": "See {IERC721Enumerable-totalSupply}."
      },
      "transferFrom(address,address,uint256)": {
        "details": "See {IERC721-transferFrom}."
      },
      "unpause()": {
        "details": "Unpauses all token transfers. See {ERC721Pausable} and {Pausable-_unpause}. Requirements: - the caller must have the `PAUSER_ROLE`."
      }
    },
    "version": 1
  },
  "userdoc": {
    "kind": "user",
    "methods": {},
    "version": 1
  }
}