{
  "contractName": "RolexNFTFake",
  "abi": [
    {
      "inputs": [],
      "stateMutability": "nonpayable",
      "type": "constructor"
    },
    {
      "anonymous": false,
      "inputs": [
        {
          "indexed": true,
          "internalType": "address",
          "name": "owner",
          "type": "address"
        },
        {
          "indexed": true,
          "internalType": "address",
          "name": "approved",
          "type": "address"
        },
        {
          "indexed": true,
          "internalType": "uint256",
          "name": "tokenId",
          "type": "uint256"
        }
      ],
      "name": "Approval",
      "type": "event"
    },
    {
      "anonymous": false,
      "inputs": [
        {
          "indexed": true,
          "internalType": "address",
          "name": "owner",
          "type": "address"
        },
        {
          "indexed": true,
          "internalType": "address",
          "name": "operator",
          "type": "address"
        },
        {
          "indexed": false,
          "internalType": "bool",
          "name": "approved",
          "type": "bool"
        }
      ],
      "name": "ApprovalForAll",
      "type": "event"
    },
    {
      "anonymous": false,
      "inputs": [
        {
          "indexed": false,
          "internalType": "address",
          "name": "account",
          "type": "address"
        }
      ],
      "name": "Paused",
      "type": "event"
    },
    {
      "anonymous": false,
      "inputs": [
        {
          "indexed": true,
          "internalType": "bytes32",
          "name": "role",
          "type": "bytes32"
        },
        {
          "indexed": true,
          "internalType": "bytes32",
          "name": "previousAdminRole",
          "type": "bytes32"
        },
        {
          "indexed": true,
          "internalType": "bytes32",
          "name": "newAdminRole",
          "type": "bytes32"
        }
      ],
      "name": "RoleAdminChanged",
      "type": "event"
    },
    {
      "anonymous": false,
      "inputs": [
        {
          "indexed": true,
          "internalType": "bytes32",
          "name": "role",
          "type": "bytes32"
        },
        {
          "indexed": true,
          "internalType": "address",
          "name": "account",
          "type": "address"
        },
        {
          "indexed": true,
          "internalType": "address",
          "name": "sender",
          "type": "address"
        }
      ],
      "name": "RoleGranted",
      "type": "event"
    },
    {
      "anonymous": false,
      "inputs": [
        {
          "indexed": true,
          "internalType": "bytes32",
          "name": "role",
          "type": "bytes32"
        },
        {
          "indexed": true,
          "internalType": "address",
          "name": "account",
          "type": "address"
        },
        {
          "indexed": true,
          "internalType": "address",
          "name": "sender",
          "type": "address"
        }
      ],
      "name": "RoleRevoked",
      "type": "event"
    },
    {
      "anonymous": false,
      "inputs": [
        {
          "indexed": true,
          "internalType": "address",
          "name": "from",
          "type": "address"
        },
        {
          "indexed": true,
          "internalType": "address",
          "name": "to",
          "type": "address"
        },
        {
          "indexed": true,
          "internalType": "uint256",
          "name": "tokenId",
          "type": "uint256"
        }
      ],
      "name": "Transfer",
      "type": "event"
    },
    {
      "anonymous": false,
      "inputs": [
        {
          "indexed": false,
          "internalType": "address",
          "name": "account",
          "type": "address"
        }
      ],
      "name": "Unpaused",
      "type": "event"
    },
    {
      "inputs": [],
      "name": "DEFAULT_ADMIN_ROLE",
      "outputs": [
        {
          "internalType": "bytes32",
          "name": "",
          "type": "bytes32"
        }
      ],
      "stateMutability": "view",
      "type": "function",
      "constant": true
    },
    {
      "inputs": [],
      "name": "MINTER_ROLE",
      "outputs": [
        {
          "internalType": "bytes32",
          "name": "",
          "type": "bytes32"
        }
      ],
      "stateMutability": "view",
      "type": "function",
      "constant": true
    },
    {
      "inputs": [],
      "name": "PAUSER_ROLE",
      "outputs": [
        {
          "internalType": "bytes32",
          "name": "",
          "type": "bytes32"
        }
      ],
      "stateMutability": "view",
      "type": "function",
      "constant": true
    },
    {
      "inputs": [
        {
          "internalType": "address",
          "name": "to",
          "type": "address"
        },
        {
          "internalType": "uint256",
          "name": "tokenId",
          "type": "uint256"
        }
      ],
      "name": "approve",
      "outputs": [],
      "stateMutability": "nonpayable",
      "type": "function"
    },
    {
      "inputs": [
        {
          "internalType": "address",
          "name": "owner",
          "type": "address"
        }
      ],
      "name": "balanceOf",
      "outputs": [
        {
          "internalType": "uint256",
          "name": "",
          "type": "uint256"
        }
      ],
      "stateMutability": "view",
      "type": "function",
      "constant": true
    },
    {
      "inputs": [
        {
          "internalType": "uint256",
          "name": "tokenId",
          "type": "uint256"
        }
      ],
      "name": "burn",
      "outputs": [],
      "stateMutability": "nonpayable",
      "type": "function"
    },
    {
      "inputs": [
        {
          "internalType": "uint256",
          "name": "tokenId",
          "type": "uint256"
        }
      ],
      "name": "getApproved",
      "outputs": [
        {
          "internalType": "address",
          "name": "",
          "type": "address"
        }
      ],
      "stateMutability": "view",
      "type": "function",
      "constant": true
    },
    {
      "inputs": [
        {
          "internalType": "bytes32",
          "name": "role",
          "type": "bytes32"
        }
      ],
      "name": "getRoleAdmin",
      "outputs": [
        {
          "internalType": "bytes32",
          "name": "",
          "type": "bytes32"
        }
      ],
      "stateMutability": "view",
      "type": "function",
      "constant": true
    },
    {
      "inputs": [
        {
          "internalType": "bytes32",
          "name": "role",
          "type": "bytes32"
        },
        {
          "internalType": "uint256",
          "name": "index",
          "type": "uint256"
        }
      ],
      "name": "getRoleMember",
      "outputs": [
        {
          "internalType": "address",
          "name": "",
          "type": "address"
        }
      ],
      "stateMutability": "view",
      "type": "function",
      "constant": true
    },
    {
      "inputs": [
        {
          "internalType": "bytes32",
          "name": "role",
          "type": "bytes32"
        }
      ],
      "name": "getRoleMemberCount",
      "outputs": [
        {
          "internalType": "uint256",
          "name": "",
          "type": "uint256"
        }
      ],
      "stateMutability": "view",
      "type": "function",
      "constant": true
    },
    {
      "inputs": [
        {
          "internalType": "bytes32",
          "name": "role",
          "type": "bytes32"
        },
        {
          "internalType": "address",
          "name": "account",
          "type": "address"
        }
      ],
      "name": "grantRole",
      "outputs": [],
      "stateMutability": "nonpayable",
      "type": "function"
    },
    {
      "inputs": [
        {
          "internalType": "bytes32",
          "name": "role",
          "type": "bytes32"
        },
        {
          "internalType": "address",
          "name": "account",
          "type": "address"
        }
      ],
      "name": "hasRole",
      "outputs": [
        {
          "internalType": "bool",
          "name": "",
          "type": "bool"
        }
      ],
      "stateMutability": "view",
      "type": "function",
      "constant": true
    },
    {
      "inputs": [
        {
          "internalType": "address",
          "name": "owner",
          "type": "address"
        },
        {
          "internalType": "address",
          "name": "operator",
          "type": "address"
        }
      ],
      "name": "isApprovedForAll",
      "outputs": [
        {
          "internalType": "bool",
          "name": "",
          "type": "bool"
        }
      ],
      "stateMutability": "view",
      "type": "function",
      "constant": true
    },
    {
      "inputs": [],
      "name": "maxSupply",
      "outputs": [
        {
          "internalType": "int256",
          "name": "",
          "type": "int256"
        }
      ],
      "stateMutability": "view",
      "type": "function",
      "constant": true
    },
    {
      "inputs": [
        {
          "internalType": "address",
          "name": "to",
          "type": "address"
        }
      ],
      "name": "mint",
      "outputs": [],
      "stateMutability": "nonpayable",
      "type": "function"
    },
    {
      "inputs": [],
      "name": "name",
      "outputs": [
        {
          "internalType": "string",
          "name": "",
          "type": "string"
        }
      ],
      "stateMutability": "view",
      "type": "function",
      "constant": true
    },
    {
      "inputs": [
        {
          "internalType": "uint256",
          "name": "tokenId",
          "type": "uint256"
        }
      ],
      "name": "ownerOf",
      "outputs": [
        {
          "internalType": "address",
          "name": "",
          "type": "address"
        }
      ],
      "stateMutability": "view",
      "type": "function",
      "constant": true
    },
    {
      "inputs": [],
      "name": "pause",
      "outputs": [],
      "stateMutability": "nonpayable",
      "type": "function"
    },
    {
      "inputs": [],
      "name": "paused",
      "outputs": [
        {
          "internalType": "bool",
          "name": "",
          "type": "bool"
        }
      ],
      "stateMutability": "view",
      "type": "function",
      "constant": true
    },
    {
      "inputs": [
        {
          "internalType": "bytes32",
          "name": "role",
          "type": "bytes32"
        },
        {
          "internalType": "address",
          "name": "account",
          "type": "address"
        }
      ],
      "name": "renounceRole",
      "outputs": [],
      "stateMutability": "nonpayable",
      "type": "function"
    },
    {
      "inputs": [
        {
          "internalType": "bytes32",
          "name": "role",
          "type": "bytes32"
        },
        {
          "internalType": "address",
          "name": "account",
          "type": "address"
        }
      ],
      "name": "revokeRole",
      "outputs": [],
      "stateMutability": "nonpayable",
      "type": "function"
    },
    {
      "inputs": [
        {
          "internalType": "address",
          "name": "from",
          "type": "address"
        },
        {
          "internalType": "address",
          "name": "to",
          "type": "address"
        },
        {
          "internalType": "uint256",
          "name": "tokenId",
          "type": "uint256"
        }
      ],
      "name": "safeTransferFrom",
      "outputs": [],
      "stateMutability": "nonpayable",
      "type": "function"
    },
    {
      "inputs": [
        {
          "internalType": "address",
          "name": "from",
          "type": "address"
        },
        {
          "internalType": "address",
          "name": "to",
          "type": "address"
        },
        {
          "internalType": "uint256",
          "name": "tokenId",
          "type": "uint256"
        },
        {
          "internalType": "bytes",
          "name": "data",
          "type": "bytes"
        }
      ],
      "name": "safeTransferFrom",
      "outputs": [],
      "stateMutability": "nonpayable",
      "type": "function"
    },
    {
      "inputs": [
        {
          "internalType": "address",
          "name": "operator",
          "type": "address"
        },
        {
          "internalType": "bool",
          "name": "approved",
          "type": "bool"
        }
      ],
      "name": "setApprovalForAll",
      "outputs": [],
      "stateMutability": "nonpayable",
      "type": "function"
    },
    {
      "inputs": [
        {
          "internalType": "bytes4",
          "name": "interfaceId",
          "type": "bytes4"
        }
      ],
      "name": "supportsInterface",
      "outputs": [
        {
          "internalType": "bool",
          "name": "",
          "type": "bool"
        }
      ],
      "stateMutability": "view",
      "type": "function",
      "constant": true
    },
    {
      "inputs": [],
      "name": "symbol",
      "outputs": [
        {
          "internalType": "string",
          "name": "",
          "type": "string"
        }
      ],
      "stateMutability": "view",
      "type": "function",
      "constant": true
    },
    {
      "inputs": [
        {
          "internalType": "uint256",
          "name": "index",
          "type": "uint256"
        }
      ],
      "name": "tokenByIndex",
      "outputs": [
        {
          "internalType": "uint256",
          "name": "",
          "type": "uint256"
        }
      ],
      "stateMutability": "view",
      "type": "function",
      "constant": true
    },
    {
      "inputs": [],
      "name": "tokenCount",
      "outputs": [
        {
          "internalType": "uint256",
          "name": "",
          "type": "uint256"
        }
      ],
      "stateMutability": "view",
      "type": "function",
      "constant": true
    },
    {
      "inputs": [
        {
          "internalType": "address",
          "name": "owner",
          "type": "address"
        },
        {
          "internalType": "uint256",
          "name": "index",
          "type": "uint256"
        }
      ],
      "name": "tokenOfOwnerByIndex",
      "outputs": [
        {
          "internalType": "uint256",
          "name": "",
          "type": "uint256"
        }
      ],
      "stateMutability": "view",
      "type": "function",
      "constant": true
    },
    {
      "inputs": [],
      "name": "totalSupply",
      "outputs": [
        {
          "internalType": "uint256",
          "name": "",
          "type": "uint256"
        }
      ],
      "stateMutability": "view",
      "type": "function",
      "constant": true
    },
    {
      "inputs": [
        {
          "internalType": "address",
          "name": "from",
          "type": "address"
        },
        {
          "internalType": "address",
          "name": "to",
          "type": "address"
        },
        {
          "internalType": "uint256",
          "name": "tokenId",
          "type": "uint256"
        }
      ],
      "name": "transferFrom",
      "outputs": [],
      "stateMutability": "nonpayable",
      "type": "function"
    },
    {
      "inputs": [],
      "name": "unpause",
      "outputs": [],
      "stateMutability": "nonpayable",
      "type": "function"
    },
    {
      "inputs": [],
      "name": "getOwner",
      "outputs": [
        {
          "internalType": "address",
          "name": "",
          "type": "address"
        }
      ],
      "stateMutability": "view",
      "type": "function",
      "constant": true
    },
    {
      "inputs": [
        {
          "internalType": "uint256",
          "name": "tokenId",
          "type": "uint256"
        }
      ],
      "name": "tokenURI",
      "outputs": [
        {
          "internalType": "string",
          "name": "",
          "type": "string"
        }
      ],
      "stateMutability": "view",
      "type": "function",
      "constant": true
    },
    {
      "inputs": [],
      "name": "mintAll",
      "outputs": [],
      "stateMutability": "nonpayable",
      "type": "function"
    },
    {
      "inputs": [
        {
          "internalType": "uint256",
          "name": "tokenId",
          "type": "uint256"
        }
      ],
      "name": "mintNFT",
      "outputs": [],
      "stateMutability": "nonpayable",
      "type": "function"
    }
  ],
  "bytecode": "0x60806040526005600f553480156200001657600080fd5b506040518060400160405280601581526020017f526f6c6578203230323220436f6c6c656374696f6e00000000000000000000008152506040518060400160405280600881526020017f524f4c45582d323200000000000000000000000000000000000000000000000081525060405180608001604052806051815260200162004fde6051913982828160029081620000b09190620006f2565b508060039081620000c29190620006f2565b5050506000600c60006101000a81548160ff02191690831515021790555080600e9081620000f19190620006f2565b50620001166000801b6200010a620001e260201b60201c565b620001ea60201b60201c565b620001577f9f2df0fed2c77648de5860a4cc508cd0818c85b8b8a1ab4ceeef8d981c8956a66200014b620001e260201b60201c565b620001ea60201b60201c565b620001987f65d7a28e3265b37a6474929f336521b332c1681b933f6cb9f3376673440d862a6200018c620001e260201b60201c565b620001ea60201b60201c565b50505033601060006101000a81548173ffffffffffffffffffffffffffffffffffffffff021916908373ffffffffffffffffffffffffffffffffffffffff160217905550620007d9565b600033905090565b620001fc82826200020060201b60201c565b5050565b6200021782826200024860201b620012af1760201c565b6200024381600160008581526020019081526020016000206200033960201b6200138f1790919060201c565b505050565b6200025a82826200037160201b60201c565b6200033557600160008084815260200190815260200160002060000160008373ffffffffffffffffffffffffffffffffffffffff1673ffffffffffffffffffffffffffffffffffffffff16815260200190815260200160002060006101000a81548160ff021916908315150217905550620002da620001e260201b60201c565b73ffffffffffffffffffffffffffffffffffffffff168173ffffffffffffffffffffffffffffffffffffffff16837f2f8788117e7eff1d82e926ec794901d17c78024a50270940304540a733656f0d60405160405180910390a45b5050565b600062000369836000018373ffffffffffffffffffffffffffffffffffffffff1660001b620003db60201b60201c565b905092915050565b600080600084815260200190815260200160002060000160008373ffffffffffffffffffffffffffffffffffffffff1673ffffffffffffffffffffffffffffffffffffffff16815260200190815260200160002060009054906101000a900460ff16905092915050565b6000620003ef83836200045560201b60201c565b6200044a5782600001829080600181540180825580915050600190039060005260206000200160009091909190915055826000018054905083600101600084815260200190815260200160002081905550600190506200044f565b600090505b92915050565b600080836001016000848152602001908152602001600020541415905092915050565b600081519050919050565b7f4e487b7100000000000000000000000000000000000000000000000000000000600052604160045260246000fd5b7f4e487b7100000000000000000000000000000000000000000000000000000000600052602260045260246000fd5b60006002820490506001821680620004fa57607f821691505b60208210810362000510576200050f620004b2565b5b50919050565b60008190508160005260206000209050919050565b60006020601f8301049050919050565b600082821b905092915050565b6000600883026200057a7fffffffffffffffffffffffffffffffffffffffffffffffffffffffffffffffff826200053b565b6200058686836200053b565b95508019841693508086168417925050509392505050565b6000819050919050565b6000819050919050565b6000620005d3620005cd620005c7846200059e565b620005a8565b6200059e565b9050919050565b6000819050919050565b620005ef83620005b2565b62000607620005fe82620005da565b84845462000548565b825550505050565b600090565b6200061e6200060f565b6200062b818484620005e4565b505050565b5b8181101562000653576200064760008262000614565b60018101905062000631565b5050565b601f821115620006a2576200066c8162000516565b62000677846200052b565b8101602085101562000687578190505b6200069f62000696856200052b565b83018262000630565b50505b505050565b600082821c905092915050565b6000620006c760001984600802620006a7565b1980831691505092915050565b6000620006e28383620006b4565b9150826002028217905092915050565b620006fd8262000478565b67ffffffffffffffff81111562000719576200071862000483565b5b620007258254620004e1565b6200073282828562000657565b600060209050601f8311600181146200076a576000841562000755578287015190505b620007618582620006d4565b865550620007d1565b601f1984166200077a8662000516565b60005b82811015620007a4578489015182556001820191506020850194506020810190506200077d565b86831015620007c45784890151620007c0601f891682620006b4565b8355505b6001600288020188555050505b505050505050565b6147f580620007e96000396000f3fe608060405234801561001057600080fd5b506004361061021c5760003560e01c806370a0823111610125578063a22cb465116100ad578063d53913931161007c578063d539139314610639578063d547741f14610657578063d5abeb0114610673578063e63ab1e914610691578063e985e9c5146106af5761021c565b8063a22cb465146105a1578063b88d4fde146105bd578063c87b56dd146105d9578063ca15c873146106095761021c565b806391d14854116100f457806391d14854146104fb578063926427441461052b57806395d89b41146105475780639f181b5e14610565578063a217fddf146105835761021c565b806370a08231146104735780638456cb59146104a3578063893d20e8146104ad5780639010d07c146104cb5761021c565b806336568abe116101a85780634f6ccce7116101775780634f6ccce7146103cf578063595882b3146103ff5780635c975abb146104095780636352211e146104275780636a627842146104575761021c565b806336568abe146103715780633f4ba83a1461038d57806342842e0e1461039757806342966c68146103b35761021c565b806318160ddd116101ef57806318160ddd146102bb57806323b872dd146102d9578063248a9ca3146102f55780632f2ff15d146103255780632f745c59146103415761021c565b806301ffc9a71461022157806306fdde0314610251578063081812fc1461026f578063095ea7b31461029f575b600080fd5b61023b60048036038101906102369190613099565b6106df565b60405161024891906130e1565b60405180910390f35b6102596106f1565b6040516102669190613195565b60405180910390f35b610289600480360381019061028491906131ed565b610783565b604051610296919061325b565b60405180910390f35b6102b960048036038101906102b491906132a2565b6107c9565b005b6102c36108e0565b6040516102d091906132f1565b60405180910390f35b6102f360048036038101906102ee919061330c565b6108ed565b005b61030f600480360381019061030a9190613395565b61094d565b60405161031c91906133d1565b60405180910390f35b61033f600480360381019061033a91906133ec565b61096c565b005b61035b600480360381019061035691906132a2565b61098d565b60405161036891906132f1565b60405180910390f35b61038b600480360381019061038691906133ec565b610a32565b005b610395610ab5565b005b6103b160048036038101906103ac919061330c565b610b2f565b005b6103cd60048036038101906103c891906131ed565b610b4f565b005b6103e960048036038101906103e491906131ed565b610bab565b6040516103f691906132f1565b60405180910390f35b610407610c1c565b005b610411610c5f565b60405161041e91906130e1565b60405180910390f35b610441600480360381019061043c91906131ed565b610c76565b60405161044e919061325b565b60405180910390f35b610471600480360381019061046c919061342c565b610d27565b005b61048d6004803603810190610488919061342c565b610db7565b60405161049a91906132f1565b60405180910390f35b6104ab610e6e565b005b6104b5610ee8565b6040516104c2919061325b565b60405180910390f35b6104e560048036038101906104e09190613459565b610f12565b6040516104f2919061325b565b60405180910390f35b610515600480360381019061051091906133ec565b610f41565b60405161052291906130e1565b60405180910390f35b610545600480360381019061054091906131ed565b610fab565b005b61054f611040565b60405161055c9190613195565b60405180910390f35b61056d6110d2565b60405161057a91906132f1565b60405180910390f35b61058b6110d8565b60405161059891906133d1565b60405180910390f35b6105bb60048036038101906105b691906134c5565b6110df565b005b6105d760048036038101906105d2919061363a565b6110f5565b005b6105f360048036038101906105ee91906131ed565b611157565b6040516106009190613195565b60405180910390f35b610623600480360381019061061e9190613395565b611188565b60405161063091906132f1565b60405180910390f35b6106416111ac565b60405161064e91906133d1565b60405180910390f35b610671600480360381019061066c91906133ec565b6111d0565b005b61067b6111f1565b60405161068891906136d6565b60405180910390f35b6106996111f7565b6040516106a691906133d1565b60405180910390f35b6106c960048036038101906106c491906136f1565b61121b565b6040516106d691906130e1565b60405180910390f35b60006106ea826113bf565b9050919050565b60606002805461070090613760565b80601f016020809104026020016040519081016040528092919081815260200182805461072c90613760565b80156107795780601f1061074e57610100808354040283529160200191610779565b820191906000526020600020905b81548152906001019060200180831161075c57829003601f168201915b5050505050905090565b600061078e82611439565b6006600083815260200190815260200160002060009054906101000a900473ffffffffffffffffffffffffffffffffffffffff169050919050565b60006107d482610c76565b90508073ffffffffffffffffffffffffffffffffffffffff168373ffffffffffffffffffffffffffffffffffffffff1603610844576040517f08c379a000000000000000000000000000000000000000000000000000000000815260040161083b90613803565b60405180910390fd5b8073ffffffffffffffffffffffffffffffffffffffff16610863611484565b73ffffffffffffffffffffffffffffffffffffffff16148061089257506108918161088c611484565b61121b565b5b6108d1576040517f08c379a00000000000000000000000000000000000000000000000000000000081526004016108c890613895565b60405180910390fd5b6108db838361148c565b505050565b6000600a80549050905090565b6108fe6108f8611484565b82611545565b61093d576040517f08c379a000000000000000000000000000000000000000000000000000000000815260040161093490613927565b60405180910390fd5b6109488383836115da565b505050565b6000806000838152602001908152602001600020600101549050919050565b6109758261094d565b61097e81611840565b6109888383611854565b505050565b600061099883610db7565b82106109d9576040517f08c379a00000000000000000000000000000000000000000000000000000000081526004016109d0906139b9565b60405180910390fd5b600860008473ffffffffffffffffffffffffffffffffffffffff1673ffffffffffffffffffffffffffffffffffffffff168152602001908152602001600020600083815260200190815260200160002054905092915050565b610a3a611484565b73ffffffffffffffffffffffffffffffffffffffff168173ffffffffffffffffffffffffffffffffffffffff1614610aa7576040517f08c379a0000000000000000000000000000000000000000000000000000000008152600401610a9e90613a4b565b60405180910390fd5b610ab18282611888565b5050565b610ae67f65d7a28e3265b37a6474929f336521b332c1681b933f6cb9f3376673440d862a610ae1611484565b610f41565b610b25576040517f08c379a0000000000000000000000000000000000000000000000000000000008152600401610b1c90613add565b60405180910390fd5b610b2d6118bc565b565b610b4a838383604051806020016040528060008152506110f5565b505050565b610b60610b5a611484565b82611545565b610b9f576040517f08c379a0000000000000000000000000000000000000000000000000000000008152600401610b9690613927565b60405180910390fd5b610ba88161191f565b50565b6000610bb56108e0565b8210610bf6576040517f08c379a0000000000000000000000000000000000000000000000000000000008152600401610bed90613b6f565b60405180910390fd5b600a8281548110610c0a57610c09613b8f565b5b90600052602060002001549050919050565b60005b600f548113610c5c57610c3133610d27565b60116000815480929190610c4490613bed565b91905055508080610c5490613c35565b915050610c1f565b50565b6000600c60009054906101000a900460ff16905090565b6000806004600084815260200190815260200160002060009054906101000a900473ffffffffffffffffffffffffffffffffffffffff169050600073ffffffffffffffffffffffffffffffffffffffff168173ffffffffffffffffffffffffffffffffffffffff1603610d1e576040517f08c379a0000000000000000000000000000000000000000000000000000000008152600401610d1590613cc9565b60405180910390fd5b80915050919050565b610d587f9f2df0fed2c77648de5860a4cc508cd0818c85b8b8a1ab4ceeef8d981c8956a6610d53611484565b610f41565b610d97576040517f08c379a0000000000000000000000000000000000000000000000000000000008152600401610d8e90613d5b565b60405180910390fd5b610daa81610da5600d611a3c565b611a4a565b610db4600d611c23565b50565b60008073ffffffffffffffffffffffffffffffffffffffff168273ffffffffffffffffffffffffffffffffffffffff1603610e27576040517f08c379a0000000000000000000000000000000000000000000000000000000008152600401610e1e90613ded565b60405180910390fd5b600560008373ffffffffffffffffffffffffffffffffffffffff1673ffffffffffffffffffffffffffffffffffffffff168152602001908152602001600020549050919050565b610e9f7f65d7a28e3265b37a6474929f336521b332c1681b933f6cb9f3376673440d862a610e9a611484565b610f41565b610ede576040517f08c379a0000000000000000000000000000000000000000000000000000000008152600401610ed590613e7f565b60405180910390fd5b610ee6611c39565b565b6000601060009054906101000a900473ffffffffffffffffffffffffffffffffffffffff16905090565b6000610f398260016000868152602001908152602001600020611c9c90919063ffffffff16565b905092915050565b600080600084815260200190815260200160002060000160008373ffffffffffffffffffffffffffffffffffffffff1673ffffffffffffffffffffffffffffffffffffffff16815260200190815260200160002060009054906101000a900460ff16905092915050565b610fdc7f9f2df0fed2c77648de5860a4cc508cd0818c85b8b8a1ab4ceeef8d981c8956a6610fd7611484565b610f41565b61101b576040517f08c379a000000000000000000000000000000000000000000000000000000000815260040161101290613d5b565b60405180910390fd5b6011600081548092919061102e90613bed565b919050555061103d3382611a4a565b50565b60606003805461104f90613760565b80601f016020809104026020016040519081016040528092919081815260200182805461107b90613760565b80156110c85780601f1061109d576101008083540402835291602001916110c8565b820191906000526020600020905b8154815290600101906020018083116110ab57829003601f168201915b5050505050905090565b60115481565b6000801b81565b6110f16110ea611484565b8383611cb6565b5050565b611106611100611484565b83611545565b611145576040517f08c379a000000000000000000000000000000000000000000000000000000000815260040161113c90613927565b60405180910390fd5b61115184848484611e22565b50505050565b606061116282611e7e565b6040516020016111729190613f27565b6040516020818303038152906040529050919050565b60006111a560016000848152602001908152602001600020611ee6565b9050919050565b7f9f2df0fed2c77648de5860a4cc508cd0818c85b8b8a1ab4ceeef8d981c8956a681565b6111d98261094d565b6111e281611840565b6111ec8383611888565b505050565b600f5481565b7f65d7a28e3265b37a6474929f336521b332c1681b933f6cb9f3376673440d862a81565b6000600760008473ffffffffffffffffffffffffffffffffffffffff1673ffffffffffffffffffffffffffffffffffffffff16815260200190815260200160002060008373ffffffffffffffffffffffffffffffffffffffff1673ffffffffffffffffffffffffffffffffffffffff16815260200190815260200160002060009054906101000a900460ff16905092915050565b6112b98282610f41565b61138b57600160008084815260200190815260200160002060000160008373ffffffffffffffffffffffffffffffffffffffff1673ffffffffffffffffffffffffffffffffffffffff16815260200190815260200160002060006101000a81548160ff021916908315150217905550611330611484565b73ffffffffffffffffffffffffffffffffffffffff168173ffffffffffffffffffffffffffffffffffffffff16837f2f8788117e7eff1d82e926ec794901d17c78024a50270940304540a733656f0d60405160405180910390a45b5050565b60006113b7836000018373ffffffffffffffffffffffffffffffffffffffff1660001b611efb565b905092915050565b60007f780e9d63000000000000000000000000000000000000000000000000000000007bffffffffffffffffffffffffffffffffffffffffffffffffffffffff1916827bffffffffffffffffffffffffffffffffffffffffffffffffffffffff19161480611432575061143182611f6b565b5b9050919050565b6114428161204d565b611481576040517f08c379a000000000000000000000000000000000000000000000000000000000815260040161147890613cc9565b60405180910390fd5b50565b600033905090565b816006600083815260200190815260200160002060006101000a81548173ffffffffffffffffffffffffffffffffffffffff021916908373ffffffffffffffffffffffffffffffffffffffff160217905550808273ffffffffffffffffffffffffffffffffffffffff166114ff83610c76565b73ffffffffffffffffffffffffffffffffffffffff167f8c5be1e5ebec7d5bd14f71427d1e84f3dd0314c0f7b2291e5b200ac8c7c3b92560405160405180910390a45050565b60008061155183610c76565b90508073ffffffffffffffffffffffffffffffffffffffff168473ffffffffffffffffffffffffffffffffffffffff1614806115935750611592818561121b565b5b806115d157508373ffffffffffffffffffffffffffffffffffffffff166115b984610783565b73ffffffffffffffffffffffffffffffffffffffff16145b91505092915050565b8273ffffffffffffffffffffffffffffffffffffffff166115fa82610c76565b73ffffffffffffffffffffffffffffffffffffffff1614611650576040517f08c379a000000000000000000000000000000000000000000000000000000000815260040161164790613fbb565b60405180910390fd5b600073ffffffffffffffffffffffffffffffffffffffff168273ffffffffffffffffffffffffffffffffffffffff16036116bf576040517f08c379a00000000000000000000000000000000000000000000000000000000081526004016116b69061404d565b60405180910390fd5b6116ca8383836120b9565b6116d560008261148c565b6001600560008573ffffffffffffffffffffffffffffffffffffffff1673ffffffffffffffffffffffffffffffffffffffff1681526020019081526020016000206000828254611725919061406d565b925050819055506001600560008473ffffffffffffffffffffffffffffffffffffffff1673ffffffffffffffffffffffffffffffffffffffff168152602001908152602001600020600082825461177c91906140a1565b92505081905550816004600083815260200190815260200160002060006101000a81548173ffffffffffffffffffffffffffffffffffffffff021916908373ffffffffffffffffffffffffffffffffffffffff160217905550808273ffffffffffffffffffffffffffffffffffffffff168473ffffffffffffffffffffffffffffffffffffffff167fddf252ad1be2c89b69c2b068fc378daa952ba7f163c4a11628f55a4df523b3ef60405160405180910390a461183b8383836120c9565b505050565b6118518161184c611484565b6120ce565b50565b61185e82826112af565b611883816001600085815260200190815260200160002061138f90919063ffffffff16565b505050565b611892828261216b565b6118b7816001600085815260200190815260200160002061224c90919063ffffffff16565b505050565b6118c461227c565b6000600c60006101000a81548160ff0219169083151502179055507f5db9ee0a495bf2e6ff9c91a7834c1ba4fdd244a5e8aa4e537bd38aeae4b073aa611908611484565b604051611915919061325b565b60405180910390a1565b600061192a82610c76565b9050611938816000846120b9565b61194360008361148c565b6001600560008373ffffffffffffffffffffffffffffffffffffffff1673ffffffffffffffffffffffffffffffffffffffff1681526020019081526020016000206000828254611993919061406d565b925050819055506004600083815260200190815260200160002060006101000a81549073ffffffffffffffffffffffffffffffffffffffff021916905581600073ffffffffffffffffffffffffffffffffffffffff168273ffffffffffffffffffffffffffffffffffffffff167fddf252ad1be2c89b69c2b068fc378daa952ba7f163c4a11628f55a4df523b3ef60405160405180910390a4611a38816000846120c9565b5050565b600081600001549050919050565b600073ffffffffffffffffffffffffffffffffffffffff168273ffffffffffffffffffffffffffffffffffffffff1603611ab9576040517f08c379a0000000000000000000000000000000000000000000000000000000008152600401611ab090614143565b60405180910390fd5b611ac28161204d565b15611b02576040517f08c379a0000000000000000000000000000000000000000000000000000000008152600401611af9906141af565b60405180910390fd5b611b0e600083836120b9565b6001600560008473ffffffffffffffffffffffffffffffffffffffff1673ffffffffffffffffffffffffffffffffffffffff1681526020019081526020016000206000828254611b5e91906140a1565b92505081905550816004600083815260200190815260200160002060006101000a81548173ffffffffffffffffffffffffffffffffffffffff021916908373ffffffffffffffffffffffffffffffffffffffff160217905550808273ffffffffffffffffffffffffffffffffffffffff16600073ffffffffffffffffffffffffffffffffffffffff167fddf252ad1be2c89b69c2b068fc378daa952ba7f163c4a11628f55a4df523b3ef60405160405180910390a4611c1f600083836120c9565b5050565b6001816000016000828254019250508190555050565b611c416122c5565b6001600c60006101000a81548160ff0219169083151502179055507f62e78cea01bee320cd4e420270b5ea74000d11b0c9f74754ebdbfc544b05a258611c85611484565b604051611c92919061325b565b60405180910390a1565b6000611cab836000018361230f565b60001c905092915050565b8173ffffffffffffffffffffffffffffffffffffffff168373ffffffffffffffffffffffffffffffffffffffff1603611d24576040517f08c379a0000000000000000000000000000000000000000000000000000000008152600401611d1b9061421b565b60405180910390fd5b80600760008573ffffffffffffffffffffffffffffffffffffffff1673ffffffffffffffffffffffffffffffffffffffff16815260200190815260200160002060008473ffffffffffffffffffffffffffffffffffffffff1673ffffffffffffffffffffffffffffffffffffffff16815260200190815260200160002060006101000a81548160ff0219169083151502179055508173ffffffffffffffffffffffffffffffffffffffff168373ffffffffffffffffffffffffffffffffffffffff167f17307eab39ab6107e8899845ad3d59bd9653f200f220920489ca2b5937696c3183604051611e1591906130e1565b60405180910390a3505050565b611e2d8484846115da565b611e398484848461233a565b611e78576040517f08c379a0000000000000000000000000000000000000000000000000000000008152600401611e6f906142ad565b60405180910390fd5b50505050565b6060611e8982611439565b6000611e936124c1565b90506000815111611eb35760405180602001604052806000815250611ede565b80611ebd84612553565b604051602001611ece9291906142cd565b6040516020818303038152906040525b915050919050565b6000611ef4826000016126b3565b9050919050565b6000611f0783836126c4565b611f60578260000182908060018154018082558091505060019003906000526020600020016000909190919091505582600001805490508360010160008481526020019081526020016000208190555060019050611f65565b600090505b92915050565b60007f80ac58cd000000000000000000000000000000000000000000000000000000007bffffffffffffffffffffffffffffffffffffffffffffffffffffffff1916827bffffffffffffffffffffffffffffffffffffffffffffffffffffffff1916148061203657507f5b5e139f000000000000000000000000000000000000000000000000000000007bffffffffffffffffffffffffffffffffffffffffffffffffffffffff1916827bffffffffffffffffffffffffffffffffffffffffffffffffffffffff1916145b806120465750612045826126e7565b5b9050919050565b60008073ffffffffffffffffffffffffffffffffffffffff166004600084815260200190815260200160002060009054906101000a900473ffffffffffffffffffffffffffffffffffffffff1673ffffffffffffffffffffffffffffffffffffffff1614159050919050565b6120c4838383612761565b505050565b505050565b6120d88282610f41565b612167576120fd8173ffffffffffffffffffffffffffffffffffffffff1660146127b9565b61210b8360001c60206127b9565b60405160200161211c929190614389565b6040516020818303038152906040526040517f08c379a000000000000000000000000000000000000000000000000000000000815260040161215e9190613195565b60405180910390fd5b5050565b6121758282610f41565b1561224857600080600084815260200190815260200160002060000160008373ffffffffffffffffffffffffffffffffffffffff1673ffffffffffffffffffffffffffffffffffffffff16815260200190815260200160002060006101000a81548160ff0219169083151502179055506121ed611484565b73ffffffffffffffffffffffffffffffffffffffff168173ffffffffffffffffffffffffffffffffffffffff16837ff6391f5c32d9c69d2a47ea670b442974b53935d1edc7fd64eb21e047a839171b60405160405180910390a45b5050565b6000612274836000018373ffffffffffffffffffffffffffffffffffffffff1660001b6129f5565b905092915050565b612284610c5f565b6122c3576040517f08c379a00000000000000000000000000000000000000000000000000000000081526004016122ba9061440f565b60405180910390fd5b565b6122cd610c5f565b1561230d576040517f08c379a00000000000000000000000000000000000000000000000000000000081526004016123049061447b565b60405180910390fd5b565b600082600001828154811061232757612326613b8f565b5b9060005260206000200154905092915050565b600061235b8473ffffffffffffffffffffffffffffffffffffffff16612b09565b156124b4578373ffffffffffffffffffffffffffffffffffffffff1663150b7a02612384611484565b8786866040518563ffffffff1660e01b81526004016123a694939291906144f0565b6020604051808303816000875af19250505080156123e257506040513d601f19601f820116820180604052508101906123df9190614551565b60015b612464573d8060008114612412576040519150601f19603f3d011682016040523d82523d6000602084013e612417565b606091505b50600081510361245c576040517f08c379a0000000000000000000000000000000000000000000000000000000008152600401612453906142ad565b60405180910390fd5b805181602001fd5b63150b7a0260e01b7bffffffffffffffffffffffffffffffffffffffffffffffffffffffff1916817bffffffffffffffffffffffffffffffffffffffffffffffffffffffff1916149150506124b9565b600190505b949350505050565b6060600e80546124d090613760565b80601f01602080910402602001604051908101604052809291908181526020018280546124fc90613760565b80156125495780601f1061251e57610100808354040283529160200191612549565b820191906000526020600020905b81548152906001019060200180831161252c57829003601f168201915b5050505050905090565b60606000820361259a576040518060400160405280600181526020017f300000000000000000000000000000000000000000000000000000000000000081525090506126ae565b600082905060005b600082146125cc5780806125b590613bed565b915050600a826125c591906145ad565b91506125a2565b60008167ffffffffffffffff8111156125e8576125e761350f565b5b6040519080825280601f01601f19166020018201604052801561261a5781602001600182028036833780820191505090505b5090505b600085146126a757600182612633919061406d565b9150600a8561264291906145de565b603061264e91906140a1565b60f81b81838151811061266457612663613b8f565b5b60200101907effffffffffffffffffffffffffffffffffffffffffffffffffffffffffffff1916908160001a905350600a856126a091906145ad565b945061261e565b8093505050505b919050565b600081600001805490509050919050565b600080836001016000848152602001908152602001600020541415905092915050565b60007f5a05180f000000000000000000000000000000000000000000000000000000007bffffffffffffffffffffffffffffffffffffffffffffffffffffffff1916827bffffffffffffffffffffffffffffffffffffffffffffffffffffffff1916148061275a575061275982612b2c565b5b9050919050565b61276c838383612ba6565b612774610c5f565b156127b4576040517f08c379a00000000000000000000000000000000000000000000000000000000081526004016127ab90614681565b60405180910390fd5b505050565b6060600060028360026127cc91906146a1565b6127d691906140a1565b67ffffffffffffffff8111156127ef576127ee61350f565b5b6040519080825280601f01601f1916602001820160405280156128215781602001600182028036833780820191505090505b5090507f30000000000000000000000000000000000000000000000000000000000000008160008151811061285957612858613b8f565b5b60200101907effffffffffffffffffffffffffffffffffffffffffffffffffffffffffffff1916908160001a9053507f7800000000000000000000000000000000000000000000000000000000000000816001815181106128bd576128bc613b8f565b5b60200101907effffffffffffffffffffffffffffffffffffffffffffffffffffffffffffff1916908160001a905350600060018460026128fd91906146a1565b61290791906140a1565b90505b60018111156129a7577f3031323334353637383961626364656600000000000000000000000000000000600f86166010811061294957612948613b8f565b5b1a60f81b8282815181106129605761295f613b8f565b5b60200101907effffffffffffffffffffffffffffffffffffffffffffffffffffffffffffff1916908160001a905350600485901c9450806129a0906146fb565b905061290a565b50600084146129eb576040517f08c379a00000000000000000000000000000000000000000000000000000000081526004016129e290614770565b60405180910390fd5b8091505092915050565b60008083600101600084815260200190815260200160002054905060008114612afd576000600182612a27919061406d565b9050600060018660000180549050612a3f919061406d565b9050818114612aae576000866000018281548110612a6057612a5f613b8f565b5b9060005260206000200154905080876000018481548110612a8457612a83613b8f565b5b90600052602060002001819055508387600101600083815260200190815260200160002081905550505b85600001805480612ac257612ac1614790565b5b600190038181906000526020600020016000905590558560010160008681526020019081526020016000206000905560019350505050612b03565b60009150505b92915050565b6000808273ffffffffffffffffffffffffffffffffffffffff163b119050919050565b60007f7965db0b000000000000000000000000000000000000000000000000000000007bffffffffffffffffffffffffffffffffffffffffffffffffffffffff1916827bffffffffffffffffffffffffffffffffffffffffffffffffffffffff19161480612b9f5750612b9e82612cb8565b5b9050919050565b612bb1838383612d22565b600073ffffffffffffffffffffffffffffffffffffffff168373ffffffffffffffffffffffffffffffffffffffff1603612bf357612bee81612d27565b612c32565b8173ffffffffffffffffffffffffffffffffffffffff168373ffffffffffffffffffffffffffffffffffffffff1614612c3157612c308382612d70565b5b5b600073ffffffffffffffffffffffffffffffffffffffff168273ffffffffffffffffffffffffffffffffffffffff1603612c7457612c6f81612edd565b612cb3565b8273ffffffffffffffffffffffffffffffffffffffff168273ffffffffffffffffffffffffffffffffffffffff1614612cb257612cb18282612fae565b5b5b505050565b60007f01ffc9a7000000000000000000000000000000000000000000000000000000007bffffffffffffffffffffffffffffffffffffffffffffffffffffffff1916827bffffffffffffffffffffffffffffffffffffffffffffffffffffffff1916149050919050565b505050565b600a80549050600b600083815260200190815260200160002081905550600a81908060018154018082558091505060019003906000526020600020016000909190919091505550565b60006001612d7d84610db7565b612d87919061406d565b9050600060096000848152602001908152602001600020549050818114612e6c576000600860008673ffffffffffffffffffffffffffffffffffffffff1673ffffffffffffffffffffffffffffffffffffffff168152602001908152602001600020600084815260200190815260200160002054905080600860008773ffffffffffffffffffffffffffffffffffffffff1673ffffffffffffffffffffffffffffffffffffffff168152602001908152602001600020600084815260200190815260200160002081905550816009600083815260200190815260200160002081905550505b6009600084815260200190815260200160002060009055600860008573ffffffffffffffffffffffffffffffffffffffff1673ffffffffffffffffffffffffffffffffffffffff16815260200190815260200160002060008381526020019081526020016000206000905550505050565b60006001600a80549050612ef1919061406d565b90506000600b60008481526020019081526020016000205490506000600a8381548110612f2157612f20613b8f565b5b9060005260206000200154905080600a8381548110612f4357612f42613b8f565b5b906000526020600020018190555081600b600083815260200190815260200160002081905550600b600085815260200190815260200160002060009055600a805480612f9257612f91614790565b5b6001900381819060005260206000200160009055905550505050565b6000612fb983610db7565b905081600860008573ffffffffffffffffffffffffffffffffffffffff1673ffffffffffffffffffffffffffffffffffffffff168152602001908152602001600020600083815260200190815260200160002081905550806009600084815260200190815260200160002081905550505050565b6000604051905090565b600080fd5b600080fd5b60007fffffffff0000000000000000000000000000000000000000000000000000000082169050919050565b61307681613041565b811461308157600080fd5b50565b6000813590506130938161306d565b92915050565b6000602082840312156130af576130ae613037565b5b60006130bd84828501613084565b91505092915050565b60008115159050919050565b6130db816130c6565b82525050565b60006020820190506130f660008301846130d2565b92915050565b600081519050919050565b600082825260208201905092915050565b60005b8381101561313657808201518184015260208101905061311b565b83811115613145576000848401525b50505050565b6000601f19601f8301169050919050565b6000613167826130fc565b6131718185613107565b9350613181818560208601613118565b61318a8161314b565b840191505092915050565b600060208201905081810360008301526131af818461315c565b905092915050565b6000819050919050565b6131ca816131b7565b81146131d557600080fd5b50565b6000813590506131e7816131c1565b92915050565b60006020828403121561320357613202613037565b5b6000613211848285016131d8565b91505092915050565b600073ffffffffffffffffffffffffffffffffffffffff82169050919050565b60006132458261321a565b9050919050565b6132558161323a565b82525050565b6000602082019050613270600083018461324c565b92915050565b61327f8161323a565b811461328a57600080fd5b50565b60008135905061329c81613276565b92915050565b600080604083850312156132b9576132b8613037565b5b60006132c78582860161328d565b92505060206132d8858286016131d8565b9150509250929050565b6132eb816131b7565b82525050565b600060208201905061330660008301846132e2565b92915050565b60008060006060848603121561332557613324613037565b5b60006133338682870161328d565b93505060206133448682870161328d565b9250506040613355868287016131d8565b9150509250925092565b6000819050919050565b6133728161335f565b811461337d57600080fd5b50565b60008135905061338f81613369565b92915050565b6000602082840312156133ab576133aa613037565b5b60006133b984828501613380565b91505092915050565b6133cb8161335f565b82525050565b60006020820190506133e660008301846133c2565b92915050565b6000806040838503121561340357613402613037565b5b600061341185828601613380565b92505060206134228582860161328d565b9150509250929050565b60006020828403121561344257613441613037565b5b60006134508482850161328d565b91505092915050565b600080604083850312156134705761346f613037565b5b600061347e85828601613380565b925050602061348f858286016131d8565b9150509250929050565b6134a2816130c6565b81146134ad57600080fd5b50565b6000813590506134bf81613499565b92915050565b600080604083850312156134dc576134db613037565b5b60006134ea8582860161328d565b92505060206134fb858286016134b0565b9150509250929050565b600080fd5b600080fd5b7f4e487b7100000000000000000000000000000000000000000000000000000000600052604160045260246000fd5b6135478261314b565b810181811067ffffffffffffffff821117156135665761356561350f565b5b80604052505050565b600061357961302d565b9050613585828261353e565b919050565b600067ffffffffffffffff8211156135a5576135a461350f565b5b6135ae8261314b565b9050602081019050919050565b82818337600083830152505050565b60006135dd6135d88461358a565b61356f565b9050828152602081018484840111156135f9576135f861350a565b5b6136048482856135bb565b509392505050565b600082601f83011261362157613620613505565b5b81356136318482602086016135ca565b91505092915050565b6000806000806080858703121561365457613653613037565b5b60006136628782880161328d565b94505060206136738782880161328d565b9350506040613684878288016131d8565b925050606085013567ffffffffffffffff8111156136a5576136a461303c565b5b6136b18782880161360c565b91505092959194509250565b6000819050919050565b6136d0816136bd565b82525050565b60006020820190506136eb60008301846136c7565b92915050565b6000806040838503121561370857613707613037565b5b60006137168582860161328d565b92505060206137278582860161328d565b9150509250929050565b7f4e487b7100000000000000000000000000000000000000000000000000000000600052602260045260246000fd5b6000600282049050600182168061377857607f821691505b60208210810361378b5761378a613731565b5b50919050565b7f4552433732313a20617070726f76616c20746f2063757272656e74206f776e6560008201527f7200000000000000000000000000000000000000000000000000000000000000602082015250565b60006137ed602183613107565b91506137f882613791565b604082019050919050565b6000602082019050818103600083015261381c816137e0565b9050919050565b7f4552433732313a20617070726f76652063616c6c6572206973206e6f7420746f60008201527f6b656e206f776e6572206e6f7220617070726f76656420666f7220616c6c0000602082015250565b600061387f603e83613107565b915061388a82613823565b604082019050919050565b600060208201905081810360008301526138ae81613872565b9050919050565b7f4552433732313a2063616c6c6572206973206e6f7420746f6b656e206f776e6560008201527f72206e6f7220617070726f766564000000000000000000000000000000000000602082015250565b6000613911602e83613107565b915061391c826138b5565b604082019050919050565b6000602082019050818103600083015261394081613904565b9050919050565b7f455243373231456e756d657261626c653a206f776e657220696e646578206f7560008201527f74206f6620626f756e6473000000000000000000000000000000000000000000602082015250565b60006139a3602b83613107565b91506139ae82613947565b604082019050919050565b600060208201905081810360008301526139d281613996565b9050919050565b7f416363657373436f6e74726f6c3a2063616e206f6e6c792072656e6f756e636560008201527f20726f6c657320666f722073656c660000000000000000000000000000000000602082015250565b6000613a35602f83613107565b9150613a40826139d9565b604082019050919050565b60006020820190508181036000830152613a6481613a28565b9050919050565b7f4552433732315072657365744d696e7465725061757365724175746f49643a2060008201527f6d75737420686176652070617573657220726f6c6520746f20756e7061757365602082015250565b6000613ac7604083613107565b9150613ad282613a6b565b604082019050919050565b60006020820190508181036000830152613af681613aba565b9050919050565b7f455243373231456e756d657261626c653a20676c6f62616c20696e646578206f60008201527f7574206f6620626f756e64730000000000000000000000000000000000000000602082015250565b6000613b59602c83613107565b9150613b6482613afd565b604082019050919050565b60006020820190508181036000830152613b8881613b4c565b9050919050565b7f4e487b7100000000000000000000000000000000000000000000000000000000600052603260045260246000fd5b7f4e487b7100000000000000000000000000000000000000000000000000000000600052601160045260246000fd5b6000613bf8826131b7565b91507fffffffffffffffffffffffffffffffffffffffffffffffffffffffffffffffff8203613c2a57613c29613bbe565b5b600182019050919050565b6000613c40826136bd565b91507f7fffffffffffffffffffffffffffffffffffffffffffffffffffffffffffffff8203613c7257613c71613bbe565b5b600182019050919050565b7f4552433732313a20696e76616c696420746f6b656e2049440000000000000000600082015250565b6000613cb3601883613107565b9150613cbe82613c7d565b602082019050919050565b60006020820190508181036000830152613ce281613ca6565b9050919050565b7f4552433732315072657365744d696e7465725061757365724175746f49643a2060008201527f6d7573742068617665206d696e74657220726f6c6520746f206d696e74000000602082015250565b6000613d45603d83613107565b9150613d5082613ce9565b604082019050919050565b60006020820190508181036000830152613d7481613d38565b9050919050565b7f4552433732313a2061646472657373207a65726f206973206e6f74206120766160008201527f6c6964206f776e65720000000000000000000000000000000000000000000000602082015250565b6000613dd7602983613107565b9150613de282613d7b565b604082019050919050565b60006020820190508181036000830152613e0681613dca565b9050919050565b7f4552433732315072657365744d696e7465725061757365724175746f49643a2060008201527f6d75737420686176652070617573657220726f6c6520746f2070617573650000602082015250565b6000613e69603e83613107565b9150613e7482613e0d565b604082019050919050565b60006020820190508181036000830152613e9881613e5c565b9050919050565b600081905092915050565b6000613eb5826130fc565b613ebf8185613e9f565b9350613ecf818560208601613118565b80840191505092915050565b7f2e6a736f6e000000000000000000000000000000000000000000000000000000600082015250565b6000613f11600583613e9f565b9150613f1c82613edb565b600582019050919050565b6000613f338284613eaa565b9150613f3e82613f04565b915081905092915050565b7f4552433732313a207472616e736665722066726f6d20696e636f72726563742060008201527f6f776e6572000000000000000000000000000000000000000000000000000000602082015250565b6000613fa5602583613107565b9150613fb082613f49565b604082019050919050565b60006020820190508181036000830152613fd481613f98565b9050919050565b7f4552433732313a207472616e7366657220746f20746865207a65726f2061646460008201527f7265737300000000000000000000000000000000000000000000000000000000602082015250565b6000614037602483613107565b915061404282613fdb565b604082019050919050565b600060208201905081810360008301526140668161402a565b9050919050565b6000614078826131b7565b9150614083836131b7565b92508282101561409657614095613bbe565b5b828203905092915050565b60006140ac826131b7565b91506140b7836131b7565b9250827fffffffffffffffffffffffffffffffffffffffffffffffffffffffffffffffff038211156140ec576140eb613bbe565b5b828201905092915050565b7f4552433732313a206d696e7420746f20746865207a65726f2061646472657373600082015250565b600061412d602083613107565b9150614138826140f7565b602082019050919050565b6000602082019050818103600083015261415c81614120565b9050919050565b7f4552433732313a20746f6b656e20616c7265616479206d696e74656400000000600082015250565b6000614199601c83613107565b91506141a482614163565b602082019050919050565b600060208201905081810360008301526141c88161418c565b9050919050565b7f4552433732313a20617070726f766520746f2063616c6c657200000000000000600082015250565b6000614205601983613107565b9150614210826141cf565b602082019050919050565b60006020820190508181036000830152614234816141f8565b9050919050565b7f4552433732313a207472616e7366657220746f206e6f6e20455243373231526560008201527f63656976657220696d706c656d656e7465720000000000000000000000000000602082015250565b6000614297603283613107565b91506142a28261423b565b604082019050919050565b600060208201905081810360008301526142c68161428a565b9050919050565b60006142d98285613eaa565b91506142e58284613eaa565b91508190509392505050565b7f416363657373436f6e74726f6c3a206163636f756e7420000000000000000000600082015250565b6000614327601783613e9f565b9150614332826142f1565b601782019050919050565b7f206973206d697373696e6720726f6c6520000000000000000000000000000000600082015250565b6000614373601183613e9f565b915061437e8261433d565b601182019050919050565b60006143948261431a565b91506143a08285613eaa565b91506143ab82614366565b91506143b78284613eaa565b91508190509392505050565b7f5061757361626c653a206e6f7420706175736564000000000000000000000000600082015250565b60006143f9601483613107565b9150614404826143c3565b602082019050919050565b60006020820190508181036000830152614428816143ec565b9050919050565b7f5061757361626c653a2070617573656400000000000000000000000000000000600082015250565b6000614465601083613107565b91506144708261442f565b602082019050919050565b6000602082019050818103600083015261449481614458565b9050919050565b600081519050919050565b600082825260208201905092915050565b60006144c28261449b565b6144cc81856144a6565b93506144dc818560208601613118565b6144e58161314b565b840191505092915050565b6000608082019050614505600083018761324c565b614512602083018661324c565b61451f60408301856132e2565b818103606083015261453181846144b7565b905095945050505050565b60008151905061454b8161306d565b92915050565b60006020828403121561456757614566613037565b5b60006145758482850161453c565b91505092915050565b7f4e487b7100000000000000000000000000000000000000000000000000000000600052601260045260246000fd5b60006145b8826131b7565b91506145c3836131b7565b9250826145d3576145d261457e565b5b828204905092915050565b60006145e9826131b7565b91506145f4836131b7565b9250826146045761460361457e565b5b828206905092915050565b7f4552433732315061757361626c653a20746f6b656e207472616e73666572207760008201527f68696c6520706175736564000000000000000000000000000000000000000000602082015250565b600061466b602b83613107565b91506146768261460f565b604082019050919050565b6000602082019050818103600083015261469a8161465e565b9050919050565b60006146ac826131b7565b91506146b7836131b7565b9250817fffffffffffffffffffffffffffffffffffffffffffffffffffffffffffffffff04831182151516156146f0576146ef613bbe565b5b828202905092915050565b6000614706826131b7565b91506000820361471957614718613bbe565b5b600182039050919050565b7f537472696e67733a20686578206c656e67746820696e73756666696369656e74600082015250565b600061475a602083613107565b915061476582614724565b602082019050919050565b600060208201905081810360008301526147898161474d565b9050919050565b7f4e487b7100000000000000000000000000000000000000000000000000000000600052603160045260246000fdfea26469706673582212200aa29aa0057593e6eebb488559ae138c24f5e5f5b93ed5da830a9d6cf73e0b3964736f6c634300080f003368747470733a2f2f676174657761792e70696e6174612e636c6f75642f697066732f516d526b4668385634695043655770567047734a396e7a38525744566b486d666771734461734a716d37537835582f",
  "immutableReferences": {},
  "source": "// SPDX-License-Identifier: MIT\npragma solidity ^0.8.0;\n\nimport \"@openzeppelin/contracts/token/ERC721/presets/ERC721PresetMinterPauserAutoId.sol\";\n\ncontract RolexNFTFake is ERC721PresetMinterPauserAutoId {\n\n    int public maxSupply = 5;\n    address private owner;\n    uint public tokenCount;\n\n    constructor () ERC721PresetMinterPauserAutoId (\"Rolex 2022 Collection\", \"ROLEX-22\", \"https://gateway.pinata.cloud/ipfs/QmRkFh8V4iPCeWpVpGsJ9nz8RWDVkHmfgqsDasJqm7Sx5X/\") {\n        owner = msg.sender;\n    }\n\n    function getOwner() public view returns (address) {\n        return owner;\n    }\n\n    function tokenURI(uint256 tokenId) public view virtual override returns (string memory) {\n       return string(abi.encodePacked(super.tokenURI(tokenId),\".json\"));\n\n    }\n      \n    function mintAll() public {\n\n        for (int i = 0; i <= maxSupply;i++) {\n            mint(msg.sender);\n            tokenCount++;\n        }\n\n    }\n\n        function mintNFT(uint256 tokenId) public virtual{\n        require(hasRole(MINTER_ROLE, _msgSender()), \"ERC721PresetMinterPauserAutoId: must have minter role to mint\");\n        tokenCount++;\n        _mint(msg.sender, tokenId);\n    }\n\n}",
  "sourcePath": "/Users/harveysandhu/Desktop/hss148/FakeContracts/Contracts/RolexNFTFake.sol",
  "compiler": {
    "name": "solc",
    "version": "0.8.15+commit.e14f2714.Emscripten.clang"
  },
  "schemaVersion": "3.4.6",
  "updatedAt": "2022-08-30T22:37:31.667Z",
  "networkType": "ethereum",
  "devdoc": {
    "kind": "dev",
    "methods": {
      "approve(address,uint256)": {
        "details": "See {IERC721-approve}."
      },
      "balanceOf(address)": {
        "details": "See {IERC721-balanceOf}."
      },
      "burn(uint256)": {
        "details": "Burns `tokenId`. See {ERC721-_burn}. Requirements: - The caller must own `tokenId` or be an approved operator."
      },
      "getApproved(uint256)": {
        "details": "See {IERC721-getApproved}."
      },
      "getRoleAdmin(bytes32)": {
        "details": "Returns the admin role that controls `role`. See {grantRole} and {revokeRole}. To change a role's admin, use {_setRoleAdmin}."
      },
      "getRoleMember(bytes32,uint256)": {
        "details": "Returns one of the accounts that have `role`. `index` must be a value between 0 and {getRoleMemberCount}, non-inclusive. Role bearers are not sorted in any particular way, and their ordering may change at any point. WARNING: When using {getRoleMember} and {getRoleMemberCount}, make sure you perform all queries on the same block. See the following https://forum.openzeppelin.com/t/iterating-over-elements-on-enumerableset-in-openzeppelin-contracts/2296[forum post] for more information."
      },
      "getRoleMemberCount(bytes32)": {
        "details": "Returns the number of accounts that have `role`. Can be used together with {getRoleMember} to enumerate all bearers of a role."
      },
      "grantRole(bytes32,address)": {
        "details": "Grants `role` to `account`. If `account` had not been already granted `role`, emits a {RoleGranted} event. Requirements: - the caller must have ``role``'s admin role. May emit a {RoleGranted} event."
      },
      "hasRole(bytes32,address)": {
        "details": "Returns `true` if `account` has been granted `role`."
      },
      "isApprovedForAll(address,address)": {
        "details": "See {IERC721-isApprovedForAll}."
      },
      "mint(address)": {
        "details": "Creates a new token for `to`. Its token ID will be automatically assigned (and available on the emitted {IERC721-Transfer} event), and the token URI autogenerated based on the base URI passed at construction. See {ERC721-_mint}. Requirements: - the caller must have the `MINTER_ROLE`."
      },
      "name()": {
        "details": "See {IERC721Metadata-name}."
      },
      "ownerOf(uint256)": {
        "details": "See {IERC721-ownerOf}."
      },
      "pause()": {
        "details": "Pauses all token transfers. See {ERC721Pausable} and {Pausable-_pause}. Requirements: - the caller must have the `PAUSER_ROLE`."
      },
      "paused()": {
        "details": "Returns true if the contract is paused, and false otherwise."
      },
      "renounceRole(bytes32,address)": {
        "details": "Revokes `role` from the calling account. Roles are often managed via {grantRole} and {revokeRole}: this function's purpose is to provide a mechanism for accounts to lose their privileges if they are compromised (such as when a trusted device is misplaced). If the calling account had been revoked `role`, emits a {RoleRevoked} event. Requirements: - the caller must be `account`. May emit a {RoleRevoked} event."
      },
      "revokeRole(bytes32,address)": {
        "details": "Revokes `role` from `account`. If `account` had been granted `role`, emits a {RoleRevoked} event. Requirements: - the caller must have ``role``'s admin role. May emit a {RoleRevoked} event."
      },
      "safeTransferFrom(address,address,uint256)": {
        "details": "See {IERC721-safeTransferFrom}."
      },
      "safeTransferFrom(address,address,uint256,bytes)": {
        "details": "See {IERC721-safeTransferFrom}."
      },
      "setApprovalForAll(address,bool)": {
        "details": "See {IERC721-setApprovalForAll}."
      },
      "supportsInterface(bytes4)": {
        "details": "See {IERC165-supportsInterface}."
      },
      "symbol()": {
        "details": "See {IERC721Metadata-symbol}."
      },
      "tokenByIndex(uint256)": {
        "details": "See {IERC721Enumerable-tokenByIndex}."
      },
      "tokenOfOwnerByIndex(address,uint256)": {
        "details": "See {IERC721Enumerable-tokenOfOwnerByIndex}."
      },
      "tokenURI(uint256)": {
        "details": "See {IERC721Metadata-tokenURI}."
      },
      "totalSupply()": {
        "details": "See {IERC721Enumerable-totalSupply}."
      },
      "transferFrom(address,address,uint256)": {
        "details": "See {IERC721-transferFrom}."
      },
      "unpause()": {
        "details": "Unpauses all token transfers. See {ERC721Pausable} and {Pausable-_unpause}. Requirements: - the caller must have the `PAUSER_ROLE`."
      }
    },
    "version": 1
  },
  "userdoc": {
    "kind": "user",
    "methods": {},
    "version": 1
  }
}